{"contracts/FishNFT.sol":{"FishNFT":{"abi":[{"inputs":[{"internalType":"uint64","name":"_subscriptionId","type":"uint64"},{"internalType":"address","name":"_VRFCoordinator","type":"address"},{"internalType":"bytes32","name":"_keyhash","type":"bytes32"}],"stateMutability":"nonpayable","type":"constructor"},{"inputs":[{"internalType":"address","name":"have","type":"address"},{"internalType":"address","name":"want","type":"address"}],"name":"OnlyCoordinatorCanFulfill","type":"error"},{"anonymous":false,"inputs":[{"indexed":true,"internalType":"address","name":"owner","type":"address"},{"indexed":true,"internalType":"address","name":"approved","type":"address"},{"indexed":true,"internalType":"uint256","name":"tokenId","type":"uint256"}],"name":"Approval","type":"event"},{"anonymous":false,"inputs":[{"indexed":true,"internalType":"address","name":"owner","type":"address"},{"indexed":true,"internalType":"address","name":"operator","type":"address"},{"indexed":false,"internalType":"bool","name":"approved","type":"bool"}],"name":"ApprovalForAll","type":"event"},{"anonymous":false,"inputs":[{"indexed":false,"internalType":"enum FishNFT.FishTypes","name":"fishType","type":"uint8"},{"indexed":false,"internalType":"uint256","name":"_tokenId","type":"uint256"},{"indexed":false,"internalType":"address","name":"_to","type":"address"}],"name":"Fished","type":"event"},{"anonymous":false,"inputs":[{"indexed":false,"internalType":"address","name":"receiver","type":"address"},{"indexed":false,"internalType":"uint256","name":"fishID","type":"uint256"}],"name":"Minted","type":"event"},{"anonymous":false,"inputs":[{"indexed":false,"internalType":"address","name":"account","type":"address"}],"name":"Paused","type":"event"},{"anonymous":false,"inputs":[{"indexed":true,"internalType":"bytes32","name":"role","type":"bytes32"},{"indexed":true,"internalType":"bytes32","name":"previousAdminRole","type":"bytes32"},{"indexed":true,"internalType":"bytes32","name":"newAdminRole","type":"bytes32"}],"name":"RoleAdminChanged","type":"event"},{"anonymous":false,"inputs":[{"indexed":true,"internalType":"bytes32","name":"role","type":"bytes32"},{"indexed":true,"internalType":"address","name":"account","type":"address"},{"indexed":true,"internalType":"address","name":"sender","type":"address"}],"name":"RoleGranted","type":"event"},{"anonymous":false,"inputs":[{"indexed":true,"internalType":"bytes32","name":"role","type":"bytes32"},{"indexed":true,"internalType":"address","name":"account","type":"address"},{"indexed":true,"internalType":"address","name":"sender","type":"address"}],"name":"RoleRevoked","type":"event"},{"anonymous":false,"inputs":[{"indexed":true,"internalType":"address","name":"from","type":"address"},{"indexed":true,"internalType":"address","name":"to","type":"address"},{"indexed":true,"internalType":"uint256","name":"tokenId","type":"uint256"}],"name":"Transfer","type":"event"},{"anonymous":false,"inputs":[{"indexed":false,"internalType":"address","name":"account","type":"address"}],"name":"Unpaused","type":"event"},{"anonymous":false,"inputs":[{"indexed":false,"internalType":"uint256","name":"requestID","type":"uint256"}],"name":"throwBait","type":"event"},{"stateMutability":"payable","type":"fallback"},{"inputs":[],"name":"COORDINATOR","outputs":[{"internalType":"contract VRFCoordinatorV2Interface","name":"","type":"address"}],"stateMutability":"view","type":"function"},{"inputs":[],"name":"DEFAULT_ADMIN_ROLE","outputs":[{"internalType":"bytes32","name":"","type":"bytes32"}],"stateMutability":"view","type":"function"},{"inputs":[],"name":"_globalCounter","outputs":[{"internalType":"uint256","name":"_value","type":"uint256"}],"stateMutability":"view","type":"function"},{"inputs":[{"internalType":"address","name":"to","type":"address"},{"internalType":"uint256","name":"tokenId","type":"uint256"}],"name":"approve","outputs":[],"stateMutability":"nonpayable","type":"function"},{"inputs":[{"internalType":"address","name":"owner","type":"address"}],"name":"balanceOf","outputs":[{"internalType":"uint256","name":"","type":"uint256"}],"stateMutability":"view","type":"function"},{"inputs":[],"name":"baseURI","outputs":[{"internalType":"string","name":"","type":"string"}],"stateMutability":"view","type":"function"},{"inputs":[{"internalType":"uint256","name":"tokenId","type":"uint256"}],"name":"burn","outputs":[],"stateMutability":"nonpayable","type":"function"},{"inputs":[{"internalType":"address","name":"too","type":"address"}],"name":"emergencyWithdraw","outputs":[],"stateMutability":"nonpayable","type":"function"},{"inputs":[{"internalType":"uint256","name":"","type":"uint256"}],"name":"fishByIds","outputs":[{"internalType":"uint256","name":"weight","type":"uint256"},{"internalType":"enum FishNFT.FishTypes","name":"typeFish","type":"uint8"}],"stateMutability":"view","type":"function"},{"inputs":[{"internalType":"uint256","name":"tokenId","type":"uint256"}],"name":"getApproved","outputs":[{"internalType":"address","name":"","type":"address"}],"stateMutability":"view","type":"function"},{"inputs":[{"internalType":"bytes32","name":"role","type":"bytes32"}],"name":"getRoleAdmin","outputs":[{"internalType":"bytes32","name":"","type":"bytes32"}],"stateMutability":"view","type":"function"},{"inputs":[{"internalType":"bytes32","name":"role","type":"bytes32"},{"internalType":"address","name":"account","type":"address"}],"name":"grantRole","outputs":[],"stateMutability":"nonpayable","type":"function"},{"inputs":[{"internalType":"bytes32","name":"role","type":"bytes32"},{"internalType":"address","name":"account","type":"address"}],"name":"hasRole","outputs":[{"internalType":"bool","name":"","type":"bool"}],"stateMutability":"view","type":"function"},{"inputs":[{"internalType":"address","name":"owner","type":"address"},{"internalType":"address","name":"operator","type":"address"}],"name":"isApprovedForAll","outputs":[{"internalType":"bool","name":"","type":"bool"}],"stateMutability":"view","type":"function"},{"inputs":[{"internalType":"address","name":"to","type":"address"},{"internalType":"uint256","name":"typeF","type":"uint256"}],"name":"mint","outputs":[],"stateMutability":"nonpayable","type":"function"},{"inputs":[],"name":"name","outputs":[{"internalType":"string","name":"","type":"string"}],"stateMutability":"view","type":"function"},{"inputs":[{"internalType":"bytes32","name":"newkeyHash","type":"bytes32"}],"name":"newKeyHash","outputs":[],"stateMutability":"nonpayable","type":"function"},{"inputs":[{"internalType":"uint256","name":"tokenId","type":"uint256"}],"name":"ownerOf","outputs":[{"internalType":"address","name":"","type":"address"}],"stateMutability":"view","type":"function"},{"inputs":[],"name":"paused","outputs":[{"internalType":"bool","name":"","type":"bool"}],"stateMutability":"view","type":"function"},{"inputs":[{"internalType":"uint256","name":"requestId","type":"uint256"},{"internalType":"uint256[]","name":"randomWords","type":"uint256[]"}],"name":"rawFulfillRandomWords","outputs":[],"stateMutability":"nonpayable","type":"function"},{"inputs":[{"internalType":"bytes32","name":"role","type":"bytes32"},{"internalType":"address","name":"account","type":"address"}],"name":"renounceRole","outputs":[],"stateMutability":"nonpayable","type":"function"},{"inputs":[{"internalType":"uint256","name":"","type":"uint256"}],"name":"requestIdToSender","outputs":[{"internalType":"address","name":"","type":"address"}],"stateMutability":"view","type":"function"},{"inputs":[{"internalType":"uint256","name":"","type":"uint256"}],"name":"requestIdToTokenId","outputs":[{"internalType":"uint256","name":"","type":"uint256"}],"stateMutability":"view","type":"function"},{"inputs":[{"internalType":"bytes32","name":"role","type":"bytes32"},{"internalType":"address","name":"account","type":"address"}],"name":"revokeRole","outputs":[],"stateMutability":"nonpayable","type":"function"},{"inputs":[{"internalType":"address","name":"from","type":"address"},{"internalType":"address","name":"to","type":"address"},{"internalType":"uint256","name":"tokenId","type":"uint256"}],"name":"safeTransferFrom","outputs":[],"stateMutability":"nonpayable","type":"function"},{"inputs":[{"internalType":"address","name":"from","type":"address"},{"internalType":"address","name":"to","type":"address"},{"internalType":"uint256","name":"tokenId","type":"uint256"},{"internalType":"bytes","name":"data","type":"bytes"}],"name":"safeTransferFrom","outputs":[],"stateMutability":"nonpayable","type":"function"},{"inputs":[{"internalType":"address","name":"operator","type":"address"},{"internalType":"bool","name":"approved","type":"bool"}],"name":"setApprovalForAll","outputs":[],"stateMutability":"nonpayable","type":"function"},{"inputs":[{"internalType":"string","name":"newBaseURI","type":"string"}],"name":"setBaseURI","outputs":[],"stateMutability":"nonpayable","type":"function"},{"inputs":[{"internalType":"uint64","name":"newsubcription","type":"uint64"}],"name":"setNewSubcription","outputs":[],"stateMutability":"nonpayable","type":"function"},{"inputs":[{"internalType":"bool","name":"_newPauseState","type":"bool"}],"name":"setPause","outputs":[],"stateMutability":"nonpayable","type":"function"},{"inputs":[{"internalType":"bytes4","name":"interfaceId","type":"bytes4"}],"name":"supportsInterface","outputs":[{"internalType":"bool","name":"","type":"bool"}],"stateMutability":"view","type":"function"},{"inputs":[],"name":"symbol","outputs":[{"internalType":"string","name":"","type":"string"}],"stateMutability":"view","type":"function"},{"inputs":[],"name":"throwABait","outputs":[{"internalType":"uint256","name":"","type":"uint256"}],"stateMutability":"nonpayable","type":"function"},{"inputs":[],"name":"tokenCounter","outputs":[{"internalType":"uint256","name":"","type":"uint256"}],"stateMutability":"view","type":"function"},{"inputs":[{"internalType":"uint256","name":"tokenID","type":"uint256"}],"name":"tokenURI","outputs":[{"internalType":"string","name":"","type":"string"}],"stateMutability":"view","type":"function"},{"inputs":[{"internalType":"address","name":"from","type":"address"},{"internalType":"address","name":"to","type":"address"},{"internalType":"uint256","name":"tokenId","type":"uint256"}],"name":"transferFrom","outputs":[],"stateMutability":"nonpayable","type":"function"},{"stateMutability":"payable","type":"receive"}],"evm":{"bytecode":{"linkReferences":{},"object":"60a06040523480156200001157600080fd5b5060405162002d1a38038062002d1a833981016040819052620000349162000204565b81604051806040016040528060078152602001665a58616c75706160c81b8152506040518060400160405280600381526020016205a4c560ec1b815250816000908162000082919062000307565b50600162000091828262000307565b50506007805460ff191690555060016008556001600160a01b03908116608052600e80546001600160a01b03191691841691909117905560408051808201909152601481527f48747470732e3139322e3136382e30312e30312f0000000000000000000000006020820152600f906200010b908262000307565b50600c8054600a805461ffff191660031790556001600160401b03851668010000000000000000026001600160801b0319909116176402000493e0179055620001566000336200015f565b505050620003d3565b60008281526006602090815260408083206001600160a01b038516845290915290205460ff16620002005760008281526006602090815260408083206001600160a01b03851684529091529020805460ff19166001179055620001bf3390565b6001600160a01b0316816001600160a01b0316837f2f8788117e7eff1d82e926ec794901d17c78024a50270940304540a733656f0d60405160405180910390a45b5050565b6000806000606084860312156200021a57600080fd5b83516001600160401b03811681146200023257600080fd5b60208501519093506001600160a01b03811681146200025057600080fd5b80925050604084015190509250925092565b634e487b7160e01b600052604160045260246000fd5b600181811c908216806200028d57607f821691505b602082108103620002ae57634e487b7160e01b600052602260045260246000fd5b50919050565b601f8211156200030257600081815260208120601f850160051c81016020861015620002dd5750805b601f850160051c820191505b81811015620002fe57828155600101620002e9565b5050505b505050565b81516001600160401b0381111562000323576200032362000262565b6200033b8162000334845462000278565b84620002b4565b602080601f8311600181146200037357600084156200035a5750858301515b600019600386901b1c1916600185901b178555620002fe565b600085815260208120601f198616915b82811015620003a45788860151825594840194600190910190840162000383565b5085821015620003c35787850151600019600388901b60f8161c191681555b5050505050600190811b01905550565b608051612924620003f6600039600081816109f30152610a3501526129246000f3fe6080604052600436106101fb5760003560e01c80635c975abb1161010c578063a217fddf1161009a578063c87b56dd1161006c578063c87b56dd14610646578063d082e38114610666578063d547741f1461067c578063d64a0d0c1461069c578063e985e9c5146106b357005b8063a217fddf146105d1578063a22cb465146105e6578063b88d4fde14610606578063bedb86fb1461062657005b80636ff1c9bc116100de5780636ff1c9bc1461052657806370a08231146105465780638e2de4d31461056657806391d148541461059c57806395d89b41146105bc57005b80635c975abb146104945780636352211e146104ac5780636844b827146104cc5780636c0360eb1461051157005b8063254bb742116101895780633b2bcbf11161015b5780633b2bcbf1146103f457806340c10f191461041457806342842e0e1461043457806342966c681461045457806355f804b31461047457005b8063254bb742146103745780632750cfdc146103945780632f2ff15d146103b457806336568abe146103d457005b8063095ea7b3116101cd578063095ea7b3146102cf5780630a564c08146102ef5780631fe543e31461030457806323b872dd14610324578063248a9ca31461034457005b806301ffc9a71461020457806306fdde031461023a5780630750b1631461025c578063081812fc1461029757005b3661020257005b005b34801561021057600080fd5b5061022561021f36600461202a565b50600090565b60405190151581526020015b60405180910390f35b34801561024657600080fd5b5061024f6106fc565b6040516102319190612097565b34801561026857600080fd5b506102896102773660046120aa565b60136020526000908152604090205481565b604051908152602001610231565b3480156102a357600080fd5b506102b76102b23660046120aa565b61078e565b6040516001600160a01b039091168152602001610231565b3480156102db57600080fd5b506102026102ea3660046120df565b6107b5565b3480156102fb57600080fd5b506102896108cf565b34801561031057600080fd5b5061020261031f366004612150565b6109e8565b34801561033057600080fd5b5061020261033f366004612202565b610a70565b34801561035057600080fd5b5061028961035f3660046120aa565b60009081526006602052604090206001015490565b34801561038057600080fd5b5061020261038f36600461223e565b610aa2565b3480156103a057600080fd5b506102026103af3660046120aa565b610ae1565b3480156103c057600080fd5b506102026103cf366004612268565b610af2565b3480156103e057600080fd5b506102026103ef366004612268565b610b17565b34801561040057600080fd5b50600e546102b7906001600160a01b031681565b34801561042057600080fd5b5061020261042f3660046120df565b610b91565b34801561044057600080fd5b5061020261044f366004612202565b610c62565b34801561046057600080fd5b5061020261046f3660046120aa565b610c7d565b34801561048057600080fd5b5061020261048f3660046122ec565b610cae565b3480156104a057600080fd5b5060075460ff16610225565b3480156104b857600080fd5b506102b76104c73660046120aa565b610cc5565b3480156104d857600080fd5b506105036104e73660046120aa565b6012602052600090815260409020805460019091015460ff1682565b60405161023192919061236d565b34801561051d57600080fd5b5061024f610d2b565b34801561053257600080fd5b50610202610541366004612381565b610db9565b34801561055257600080fd5b50610289610561366004612381565b610dc4565b34801561057257600080fd5b506102b76105813660046120aa565b6010602052600090815260409020546001600160a01b031681565b3480156105a857600080fd5b506102256105b7366004612268565b610e4a565b3480156105c857600080fd5b5061024f610e75565b3480156105dd57600080fd5b50610289600081565b3480156105f257600080fd5b506102026106013660046123ac565b610e84565b34801561061257600080fd5b506102026106213660046123d6565b610e8f565b34801561063257600080fd5b50610202610641366004612452565b610ec7565b34801561065257600080fd5b5061024f6106613660046120aa565b610ee7565b34801561067257600080fd5b50610289600d5481565b34801561068857600080fd5b50610202610697366004612268565b610f89565b3480156106a857600080fd5b506009546102899081565b3480156106bf57600080fd5b506102256106ce36600461246d565b6001600160a01b03918216600090815260056020908152604080832093909416825291909152205460ff1690565b60606000805461070b90612497565b80601f016020809104026020016040519081016040528092919081815260200182805461073790612497565b80156107845780601f1061075957610100808354040283529160200191610784565b820191906000526020600020905b81548152906001019060200180831161076757829003601f168201915b5050505050905090565b600061079982610fae565b506000908152600460205260409020546001600160a01b031690565b60006107c082610cc5565b9050806001600160a01b0316836001600160a01b0316036108325760405162461bcd60e51b815260206004820152602160248201527f4552433732313a20617070726f76616c20746f2063757272656e74206f776e656044820152603960f91b60648201526084015b60405180910390fd5b336001600160a01b038216148061084e575061084e81336106ce565b6108c05760405162461bcd60e51b815260206004820152603d60248201527f4552433732313a20617070726f76652063616c6c6572206973206e6f7420746f60448201527f6b656e206f776e6572206f7220617070726f76656420666f7220616c6c0000006064820152608401610829565b6108ca838361100d565b505050565b600e54600b54600c54600a546040516305d3b1d360e41b81526004810193909352600160401b820467ffffffffffffffff16602484015261ffff16604483015263ffffffff808216606484015264010000000090910416608482015260009182916001600160a01b0390911690635d3b1d309060a4016020604051808303816000875af1158015610964573d6000803e3d6000fd5b505050506040513d601f19601f8201168201806040525081019061098891906124d1565b6000818152601060205260409081902080546001600160a01b03191633179055519091507faa7f137f33e9e340f3b7913f08acdde444b9a6d59173ad46edc378bd024b8779906109db9083815260200190565b60405180910390a1919050565b336001600160a01b037f00000000000000000000000000000000000000000000000000000000000000001614610a625760405163073e64fd60e21b81523360048201526001600160a01b037f0000000000000000000000000000000000000000000000000000000000000000166024820152604401610829565b610a6c828261107b565b5050565b610a7b335b82611432565b610a975760405162461bcd60e51b8152600401610829906124ea565b6108ca8383836114b1565b6000610aad81611615565b50600c805467ffffffffffffffff909216600160401b026fffffffffffffffff000000000000000019909216919091179055565b6000610aec81611615565b50600b55565b600082815260066020526040902060010154610b0d81611615565b6108ca838361161f565b6001600160a01b0381163314610b875760405162461bcd60e51b815260206004820152602f60248201527f416363657373436f6e74726f6c3a2063616e206f6e6c792072656e6f756e636560448201526e103937b632b9903337b91039b2b63360891b6064820152608401610829565b610a6c82826116a5565b6000610b9c81611615565b610baa600980546001019055565b6000610bb560095490565b90506000600f610bc48561170c565b604051602001610bd5929190612537565b6040516020818303038152906040529050610bf0858361179f565b8060116000610bfe60095490565b81526020019081526020016000209081610c18919061260c565b50604080516001600160a01b0387168152602081018490527f30385c845b448a36257a6a1716e6ad2e1bc2cbe333cde1e69fe849ad6511adfe910160405180910390a15050505050565b6108ca83838360405180602001604052806000815250610e8f565b610c8633610a75565b610ca25760405162461bcd60e51b8152600401610829906124ea565b610cab816117b9565b50565b6000610cb981611615565b600f6108ca838261260c565b6000818152600260205260408120546001600160a01b031680610d255760405162461bcd60e51b8152602060048201526018602482015277115490cdcc8c4e881a5b9d985b1a59081d1bdad95b88125160421b6044820152606401610829565b92915050565b600f8054610d3890612497565b80601f0160208091040260200160405190810160405280929190818152602001828054610d6490612497565b8015610db15780601f10610d8657610100808354040283529160200191610db1565b820191906000526020600020905b815481529060010190602001808311610d9457829003601f168201915b505050505081565b6000610a6c81611615565b60006001600160a01b038216610e2e5760405162461bcd60e51b815260206004820152602960248201527f4552433732313a2061646472657373207a65726f206973206e6f7420612076616044820152683634b21037bbb732b960b91b6064820152608401610829565b506001600160a01b031660009081526003602052604090205490565b60009182526006602090815260408084206001600160a01b0393909316845291905290205460ff1690565b60606001805461070b90612497565b610a6c33838361184e565b610e993383611432565b610eb55760405162461bcd60e51b8152600401610829906124ea565b610ec18484848461191c565b50505050565b6000610ed281611615565b81610edf57610a6c61194f565b610a6c6119a1565b6000818152601160205260409020805460609190610f0490612497565b80601f0160208091040260200160405190810160405280929190818152602001828054610f3090612497565b8015610f7d5780601f10610f5257610100808354040283529160200191610f7d565b820191906000526020600020905b815481529060010190602001808311610f6057829003601f168201915b50505050509050919050565b600082815260066020526040902060010154610fa481611615565b6108ca83836116a5565b6000818152600260205260409020546001600160a01b0316610cab5760405162461bcd60e51b8152602060048201526018602482015277115490cdcc8c4e881a5b9d985b1a59081d1bdad95b88125160421b6044820152606401610829565b600081815260046020526040902080546001600160a01b0319166001600160a01b038416908117909155819061104282610cc5565b6001600160a01b03167f8c5be1e5ebec7d5bd14f71427d1e84f3dd0314c0f7b2291e5b200ac8c7c3b92560405160405180910390a45050565b611089600980546001019055565b600061109460095490565b6000848152601060209081526040808320548484526012909252822085519394506001600160a01b039091169290916009918691906110d5576110d56126cc565b60200260200101516110e791906126e2565b60000361112b576001808201805460029260ff1990911690835b021790555083600181518110611119576111196126cc565b60209081029190910101518155611368565b600884600081518110611140576111406126cc565b602002602001015161115291906126e2565b600003611170576001808201805460069260ff199091169083611101565b600784600081518110611185576111856126cc565b602002602001015161119791906126e2565b6000036111b5576001808201805460009260ff199091169083611101565b6006846000815181106111ca576111ca6126cc565b60200260200101516111dc91906126e2565b6000036111f5576001818101805460ff19168280611101565b60058460008151811061120a5761120a6126cc565b602002602001015161121c91906126e2565b60000361123a576001808201805460049260ff199091169083611101565b60048460008151811061124f5761124f6126cc565b602002602001015161126191906126e2565b60000361127f576001808201805460059260ff199091169083611101565b600384600081518110611294576112946126cc565b60200260200101516112a691906126e2565b6000036112c4576001808201805460039260ff199091169083611101565b6002846000815181106112d9576112d96126cc565b60200260200101516112eb91906126e2565b600003611309576001808201805460079260ff199091169083611101565b60018460008151811061131e5761131e6126cc565b602002602001015161133091906126e2565b600003611368576001818101805460ff191660081790558451859190811061135a5761135a6126cc565b602090810291909101015181555b6001810154600090600f906113909060ff16600881111561138b5761138b612335565b61170c565b6040516020016113a1929190612537565b60405160208183030381529060405290506113bc838561179f565b80601160006113ca60095490565b815260200190815260200160002090816113e4919061260c565b5060018201546040517f289c71d0d6d2c7afa2091c18278a04a3b8b3244a68987c28188fd2b3ff65e1ba916114229160ff9091169089908790612704565b60405180910390a1505050505050565b60008061143e83610cc5565b9050806001600160a01b0316846001600160a01b0316148061148557506001600160a01b0380821660009081526005602090815260408083209388168352929052205460ff165b806114a95750836001600160a01b031661149e8461078e565b6001600160a01b0316145b949350505050565b826001600160a01b03166114c482610cc5565b6001600160a01b0316146114ea5760405162461bcd60e51b815260040161082990612731565b6001600160a01b03821661154c5760405162461bcd60e51b8152602060048201526024808201527f4552433732313a207472616e7366657220746f20746865207a65726f206164646044820152637265737360e01b6064820152608401610829565b826001600160a01b031661155f82610cc5565b6001600160a01b0316146115855760405162461bcd60e51b815260040161082990612731565b600081815260046020908152604080832080546001600160a01b03199081169091556001600160a01b0387811680865260038552838620805460001901905590871680865283862080546001019055868652600290945282852080549092168417909155905184937fddf252ad1be2c89b69c2b068fc378daa952ba7f163c4a11628f55a4df523b3ef91a4505050565b610cab81336119de565b6116298282610e4a565b610a6c5760008281526006602090815260408083206001600160a01b03851684529091529020805460ff191660011790556116613390565b6001600160a01b0316816001600160a01b0316837f2f8788117e7eff1d82e926ec794901d17c78024a50270940304540a733656f0d60405160405180910390a45050565b6116af8282610e4a565b15610a6c5760008281526006602090815260408083206001600160a01b0385168085529252808320805460ff1916905551339285917ff6391f5c32d9c69d2a47ea670b442974b53935d1edc7fd64eb21e047a839171b9190a45050565b6060600061171983611a37565b600101905060008167ffffffffffffffff81111561173957611739612109565b6040519080825280601f01601f191660200182016040528015611763576020820181803683370190505b5090508181016020015b600019016f181899199a1a9b1b9c1cb0b131b232b360811b600a86061a8153600a850494508461176d57509392505050565b610a6c828260405180602001604052806000815250611b0f565b60006117c482610cc5565b90506117cf82610cc5565b600083815260046020908152604080832080546001600160a01b03199081169091556001600160a01b0385168085526003845282852080546000190190558785526002909352818420805490911690555192935084927fddf252ad1be2c89b69c2b068fc378daa952ba7f163c4a11628f55a4df523b3ef908390a45050565b816001600160a01b0316836001600160a01b0316036118af5760405162461bcd60e51b815260206004820152601960248201527f4552433732313a20617070726f766520746f2063616c6c6572000000000000006044820152606401610829565b6001600160a01b03838116600081815260056020908152604080832094871680845294825291829020805460ff191686151590811790915591519182527f17307eab39ab6107e8899845ad3d59bd9653f200f220920489ca2b5937696c31910160405180910390a3505050565b6119278484846114b1565b61193384848484611b42565b610ec15760405162461bcd60e51b815260040161082990612776565b611957611c43565b6007805460ff191690557f5db9ee0a495bf2e6ff9c91a7834c1ba4fdd244a5e8aa4e537bd38aeae4b073aa335b6040516001600160a01b03909116815260200160405180910390a1565b6119a9611c8e565b6007805460ff191660011790557f62e78cea01bee320cd4e420270b5ea74000d11b0c9f74754ebdbfc544b05a2586119843390565b6119e88282610e4a565b610a6c576119f581611cd4565b611a00836020611ce6565b604051602001611a119291906127c8565b60408051601f198184030181529082905262461bcd60e51b825261082991600401612097565b60008072184f03e93ff9f4daa797ed6e38ed64bf6a1f0160401b8310611a765772184f03e93ff9f4daa797ed6e38ed64bf6a1f0160401b830492506040015b6d04ee2d6d415b85acef81000000008310611aa2576d04ee2d6d415b85acef8100000000830492506020015b662386f26fc100008310611ac057662386f26fc10000830492506010015b6305f5e1008310611ad8576305f5e100830492506008015b6127108310611aec57612710830492506004015b60648310611afe576064830492506002015b600a8310610d255760010192915050565b611b198383611e89565b611b266000848484611b42565b6108ca5760405162461bcd60e51b815260040161082990612776565b60006001600160a01b0384163b15611c3857604051630a85bd0160e11b81526001600160a01b0385169063150b7a0290611b8690339089908890889060040161283d565b6020604051808303816000875af1925050508015611bc1575060408051601f3d908101601f19168201909252611bbe9181019061287a565b60015b611c1e573d808015611bef576040519150601f19603f3d011682016040523d82523d6000602084013e611bf4565b606091505b508051600003611c165760405162461bcd60e51b815260040161082990612776565b805181602001fd5b6001600160e01b031916630a85bd0160e11b1490506114a9565b506001949350505050565b60075460ff16611c8c5760405162461bcd60e51b815260206004820152601460248201527314185d5cd8589b194e881b9bdd081c185d5cd95960621b6044820152606401610829565b565b60075460ff1615611c8c5760405162461bcd60e51b815260206004820152601060248201526f14185d5cd8589b194e881c185d5cd95960821b6044820152606401610829565b6060610d256001600160a01b03831660145b60606000611cf58360026128ad565b611d009060026128c4565b67ffffffffffffffff811115611d1857611d18612109565b6040519080825280601f01601f191660200182016040528015611d42576020820181803683370190505b509050600360fc1b81600081518110611d5d57611d5d6126cc565b60200101906001600160f81b031916908160001a905350600f60fb1b81600181518110611d8c57611d8c6126cc565b60200101906001600160f81b031916908160001a9053506000611db08460026128ad565b611dbb9060016128c4565b90505b6001811115611e33576f181899199a1a9b1b9c1cb0b131b232b360811b85600f1660108110611def57611def6126cc565b1a60f81b828281518110611e0557611e056126cc565b60200101906001600160f81b031916908160001a90535060049490941c93611e2c816128d7565b9050611dbe565b508315611e825760405162461bcd60e51b815260206004820181905260248201527f537472696e67733a20686578206c656e67746820696e73756666696369656e746044820152606401610829565b9392505050565b6001600160a01b038216611edf5760405162461bcd60e51b815260206004820181905260248201527f4552433732313a206d696e7420746f20746865207a65726f20616464726573736044820152606401610829565b6000818152600260205260409020546001600160a01b031615611f445760405162461bcd60e51b815260206004820152601c60248201527f4552433732313a20746f6b656e20616c7265616479206d696e746564000000006044820152606401610829565b6000818152600260205260409020546001600160a01b031615611fa95760405162461bcd60e51b815260206004820152601c60248201527f4552433732313a20746f6b656e20616c7265616479206d696e746564000000006044820152606401610829565b6001600160a01b038216600081815260036020908152604080832080546001019055848352600290915280822080546001600160a01b0319168417905551839291907fddf252ad1be2c89b69c2b068fc378daa952ba7f163c4a11628f55a4df523b3ef908290a45050565b6001600160e01b031981168114610cab57600080fd5b60006020828403121561203c57600080fd5b8135611e8281612014565b60005b8381101561206257818101518382015260200161204a565b50506000910152565b60008151808452612083816020860160208601612047565b601f01601f19169290920160200192915050565b602081526000611e82602083018461206b565b6000602082840312156120bc57600080fd5b5035919050565b80356001600160a01b03811681146120da57600080fd5b919050565b600080604083850312156120f257600080fd5b6120fb836120c3565b946020939093013593505050565b634e487b7160e01b600052604160045260246000fd5b604051601f8201601f1916810167ffffffffffffffff8111828210171561214857612148612109565b604052919050565b6000806040838503121561216357600080fd5b8235915060208084013567ffffffffffffffff8082111561218357600080fd5b818601915086601f83011261219757600080fd5b8135818111156121a9576121a9612109565b8060051b91506121ba84830161211f565b81815291830184019184810190898411156121d457600080fd5b938501935b838510156121f2578435825293850193908501906121d9565b8096505050505050509250929050565b60008060006060848603121561221757600080fd5b612220846120c3565b925061222e602085016120c3565b9150604084013590509250925092565b60006020828403121561225057600080fd5b813567ffffffffffffffff81168114611e8257600080fd5b6000806040838503121561227b57600080fd5b8235915061228b602084016120c3565b90509250929050565b600067ffffffffffffffff8311156122ae576122ae612109565b6122c1601f8401601f191660200161211f565b90508281528383830111156122d557600080fd5b828260208301376000602084830101529392505050565b6000602082840312156122fe57600080fd5b813567ffffffffffffffff81111561231557600080fd5b8201601f8101841361232657600080fd5b6114a984823560208401612294565b634e487b7160e01b600052602160045260246000fd5b6009811061236957634e487b7160e01b600052602160045260246000fd5b9052565b82815260408101611e82602083018461234b565b60006020828403121561239357600080fd5b611e82826120c3565b803580151581146120da57600080fd5b600080604083850312156123bf57600080fd5b6123c8836120c3565b915061228b6020840161239c565b600080600080608085870312156123ec57600080fd5b6123f5856120c3565b9350612403602086016120c3565b925060408501359150606085013567ffffffffffffffff81111561242657600080fd5b8501601f8101871361243757600080fd5b61244687823560208401612294565b91505092959194509250565b60006020828403121561246457600080fd5b611e828261239c565b6000806040838503121561248057600080fd5b612489836120c3565b915061228b602084016120c3565b600181811c908216806124ab57607f821691505b6020821081036124cb57634e487b7160e01b600052602260045260246000fd5b50919050565b6000602082840312156124e357600080fd5b5051919050565b6020808252602d908201527f4552433732313a2063616c6c6572206973206e6f7420746f6b656e206f776e6560408201526c1c881bdc88185c1c1c9bdd9959609a1b606082015260800190565b600080845461254581612497565b6001828116801561255d5760018114612572576125a1565b60ff19841687528215158302870194506125a1565b8860005260208060002060005b858110156125985781548a82015290840190820161257f565b50505082870194505b5050505083516125b5818360208801612047565b01949350505050565b601f8211156108ca57600081815260208120601f850160051c810160208610156125e55750805b601f850160051c820191505b81811015612604578281556001016125f1565b505050505050565b815167ffffffffffffffff81111561262657612626612109565b61263a816126348454612497565b846125be565b602080601f83116001811461266f57600084156126575750858301515b600019600386901b1c1916600185901b178555612604565b600085815260208120601f198616915b8281101561269e5788860151825594840194600190910190840161267f565b50858210156126bc5787850151600019600388901b60f8161c191681555b5050505050600190811b01905550565b634e487b7160e01b600052603260045260246000fd5b6000826126ff57634e487b7160e01b600052601260045260246000fd5b500690565b60608101612712828661234b565b60208201939093526001600160a01b0391909116604090910152919050565b60208082526025908201527f4552433732313a207472616e736665722066726f6d20696e636f72726563742060408201526437bbb732b960d91b606082015260800190565b60208082526032908201527f4552433732313a207472616e7366657220746f206e6f6e20455243373231526560408201527131b2b4bb32b91034b6b83632b6b2b73a32b960711b606082015260800190565b7f416363657373436f6e74726f6c3a206163636f756e7420000000000000000000815260008351612800816017850160208801612047565b7001034b99036b4b9b9b4b733903937b6329607d1b6017918401918201528351612831816028840160208801612047565b01602801949350505050565b6001600160a01b03858116825284166020820152604081018390526080606082018190526000906128709083018461206b565b9695505050505050565b60006020828403121561288c57600080fd5b8151611e8281612014565b634e487b7160e01b600052601160045260246000fd5b8082028115828204841417610d2557610d25612897565b80820180821115610d2557610d25612897565b6000816128e6576128e6612897565b50600019019056fea2646970667358221220e1ca998343c707d46b25f73c5108cc6bbb163361d81da181d7a553c7e32dbc1b64736f6c63430008130033","opcodes":"PUSH1 0xA0 PUSH1 0x40 MSTORE CALLVALUE DUP1 ISZERO PUSH3 0x11 JUMPI PUSH1 0x0 DUP1 REVERT JUMPDEST POP PUSH1 0x40 MLOAD PUSH3 0x2D1A CODESIZE SUB DUP1 PUSH3 0x2D1A DUP4 CODECOPY DUP2 ADD PUSH1 0x40 DUP2 SWAP1 MSTORE PUSH3 0x34 SWAP2 PUSH3 0x204 JUMP JUMPDEST DUP2 PUSH1 0x40 MLOAD DUP1 PUSH1 0x40 ADD PUSH1 0x40 MSTORE DUP1 PUSH1 0x7 DUP2 MSTORE PUSH1 0x20 ADD PUSH7 0x5A58616C757061 PUSH1 0xC8 SHL DUP2 MSTORE POP PUSH1 0x40 MLOAD DUP1 PUSH1 0x40 ADD PUSH1 0x40 MSTORE DUP1 PUSH1 0x3 DUP2 MSTORE PUSH1 0x20 ADD PUSH3 0x5A4C5 PUSH1 0xEC SHL DUP2 MSTORE POP DUP2 PUSH1 0x0 SWAP1 DUP2 PUSH3 0x82 SWAP2 SWAP1 PUSH3 0x307 JUMP JUMPDEST POP PUSH1 0x1 PUSH3 0x91 DUP3 DUP3 PUSH3 0x307 JUMP JUMPDEST POP POP PUSH1 0x7 DUP1 SLOAD PUSH1 0xFF NOT AND SWAP1 SSTORE POP PUSH1 0x1 PUSH1 0x8 SSTORE PUSH1 0x1 PUSH1 0x1 PUSH1 0xA0 SHL SUB SWAP1 DUP2 AND PUSH1 0x80 MSTORE PUSH1 0xE DUP1 SLOAD PUSH1 0x1 PUSH1 0x1 PUSH1 0xA0 SHL SUB NOT AND SWAP2 DUP5 AND SWAP2 SWAP1 SWAP2 OR SWAP1 SSTORE PUSH1 0x40 DUP1 MLOAD DUP1 DUP3 ADD SWAP1 SWAP2 MSTORE PUSH1 0x14 DUP2 MSTORE PUSH32 0x48747470732E3139322E3136382E30312E30312F000000000000000000000000 PUSH1 0x20 DUP3 ADD MSTORE PUSH1 0xF SWAP1 PUSH3 0x10B SWAP1 DUP3 PUSH3 0x307 JUMP JUMPDEST POP PUSH1 0xC DUP1 SLOAD PUSH1 0xA DUP1 SLOAD PUSH2 0xFFFF NOT AND PUSH1 0x3 OR SWAP1 SSTORE PUSH1 0x1 PUSH1 0x1 PUSH1 0x40 SHL SUB DUP6 AND PUSH9 0x10000000000000000 MUL PUSH1 0x1 PUSH1 0x1 PUSH1 0x80 SHL SUB NOT SWAP1 SWAP2 AND OR PUSH5 0x2000493E0 OR SWAP1 SSTORE PUSH3 0x156 PUSH1 0x0 CALLER PUSH3 0x15F JUMP JUMPDEST POP POP POP PUSH3 0x3D3 JUMP JUMPDEST PUSH1 0x0 DUP3 DUP2 MSTORE PUSH1 0x6 PUSH1 0x20 SWAP1 DUP2 MSTORE PUSH1 0x40 DUP1 DUP4 KECCAK256 PUSH1 0x1 PUSH1 0x1 PUSH1 0xA0 SHL SUB DUP6 AND DUP5 MSTORE SWAP1 SWAP2 MSTORE SWAP1 KECCAK256 SLOAD PUSH1 0xFF AND PUSH3 0x200 JUMPI PUSH1 0x0 DUP3 DUP2 MSTORE PUSH1 0x6 PUSH1 0x20 SWAP1 DUP2 MSTORE PUSH1 0x40 DUP1 DUP4 KECCAK256 PUSH1 0x1 PUSH1 0x1 PUSH1 0xA0 SHL SUB DUP6 AND DUP5 MSTORE SWAP1 SWAP2 MSTORE SWAP1 KECCAK256 DUP1 SLOAD PUSH1 0xFF NOT AND PUSH1 0x1 OR SWAP1 SSTORE PUSH3 0x1BF CALLER SWAP1 JUMP JUMPDEST PUSH1 0x1 PUSH1 0x1 PUSH1 0xA0 SHL SUB AND DUP2 PUSH1 0x1 PUSH1 0x1 PUSH1 0xA0 SHL SUB AND DUP4 PUSH32 0x2F8788117E7EFF1D82E926EC794901D17C78024A50270940304540A733656F0D PUSH1 0x40 MLOAD PUSH1 0x40 MLOAD DUP1 SWAP2 SUB SWAP1 LOG4 JUMPDEST POP POP JUMP JUMPDEST PUSH1 0x0 DUP1 PUSH1 0x0 PUSH1 0x60 DUP5 DUP7 SUB SLT ISZERO PUSH3 0x21A JUMPI PUSH1 0x0 DUP1 REVERT JUMPDEST DUP4 MLOAD PUSH1 0x1 PUSH1 0x1 PUSH1 0x40 SHL SUB DUP2 AND DUP2 EQ PUSH3 0x232 JUMPI PUSH1 0x0 DUP1 REVERT JUMPDEST PUSH1 0x20 DUP6 ADD MLOAD SWAP1 SWAP4 POP PUSH1 0x1 PUSH1 0x1 PUSH1 0xA0 SHL SUB DUP2 AND DUP2 EQ PUSH3 0x250 JUMPI PUSH1 0x0 DUP1 REVERT JUMPDEST DUP1 SWAP3 POP POP PUSH1 0x40 DUP5 ADD MLOAD SWAP1 POP SWAP3 POP SWAP3 POP SWAP3 JUMP JUMPDEST PUSH4 0x4E487B71 PUSH1 0xE0 SHL PUSH1 0x0 MSTORE PUSH1 0x41 PUSH1 0x4 MSTORE PUSH1 0x24 PUSH1 0x0 REVERT JUMPDEST PUSH1 0x1 DUP2 DUP2 SHR SWAP1 DUP3 AND DUP1 PUSH3 0x28D JUMPI PUSH1 0x7F DUP3 AND SWAP2 POP JUMPDEST PUSH1 0x20 DUP3 LT DUP2 SUB PUSH3 0x2AE JUMPI PUSH4 0x4E487B71 PUSH1 0xE0 SHL PUSH1 0x0 MSTORE PUSH1 0x22 PUSH1 0x4 MSTORE PUSH1 0x24 PUSH1 0x0 REVERT JUMPDEST POP SWAP2 SWAP1 POP JUMP JUMPDEST PUSH1 0x1F DUP3 GT ISZERO PUSH3 0x302 JUMPI PUSH1 0x0 DUP2 DUP2 MSTORE PUSH1 0x20 DUP2 KECCAK256 PUSH1 0x1F DUP6 ADD PUSH1 0x5 SHR DUP2 ADD PUSH1 0x20 DUP7 LT ISZERO PUSH3 0x2DD JUMPI POP DUP1 JUMPDEST PUSH1 0x1F DUP6 ADD PUSH1 0x5 SHR DUP3 ADD SWAP2 POP JUMPDEST DUP2 DUP2 LT ISZERO PUSH3 0x2FE JUMPI DUP3 DUP2 SSTORE PUSH1 0x1 ADD PUSH3 0x2E9 JUMP JUMPDEST POP POP POP JUMPDEST POP POP POP JUMP JUMPDEST DUP2 MLOAD PUSH1 0x1 PUSH1 0x1 PUSH1 0x40 SHL SUB DUP2 GT ISZERO PUSH3 0x323 JUMPI PUSH3 0x323 PUSH3 0x262 JUMP JUMPDEST PUSH3 0x33B DUP2 PUSH3 0x334 DUP5 SLOAD PUSH3 0x278 JUMP JUMPDEST DUP5 PUSH3 0x2B4 JUMP JUMPDEST PUSH1 0x20 DUP1 PUSH1 0x1F DUP4 GT PUSH1 0x1 DUP2 EQ PUSH3 0x373 JUMPI PUSH1 0x0 DUP5 ISZERO PUSH3 0x35A JUMPI POP DUP6 DUP4 ADD MLOAD JUMPDEST PUSH1 0x0 NOT PUSH1 0x3 DUP7 SWAP1 SHL SHR NOT AND PUSH1 0x1 DUP6 SWAP1 SHL OR DUP6 SSTORE PUSH3 0x2FE JUMP JUMPDEST PUSH1 0x0 DUP6 DUP2 MSTORE PUSH1 0x20 DUP2 KECCAK256 PUSH1 0x1F NOT DUP7 AND SWAP2 JUMPDEST DUP3 DUP2 LT ISZERO PUSH3 0x3A4 JUMPI DUP9 DUP7 ADD MLOAD DUP3 SSTORE SWAP5 DUP5 ADD SWAP5 PUSH1 0x1 SWAP1 SWAP2 ADD SWAP1 DUP5 ADD PUSH3 0x383 JUMP JUMPDEST POP DUP6 DUP3 LT ISZERO PUSH3 0x3C3 JUMPI DUP8 DUP6 ADD MLOAD PUSH1 0x0 NOT PUSH1 0x3 DUP9 SWAP1 SHL PUSH1 0xF8 AND SHR NOT AND DUP2 SSTORE JUMPDEST POP POP POP POP POP PUSH1 0x1 SWAP1 DUP2 SHL ADD SWAP1 SSTORE POP JUMP JUMPDEST PUSH1 0x80 MLOAD PUSH2 0x2924 PUSH3 0x3F6 PUSH1 0x0 CODECOPY PUSH1 0x0 DUP2 DUP2 PUSH2 0x9F3 ADD MSTORE PUSH2 0xA35 ADD MSTORE PUSH2 0x2924 PUSH1 0x0 RETURN INVALID PUSH1 0x80 PUSH1 0x40 MSTORE PUSH1 0x4 CALLDATASIZE LT PUSH2 0x1FB JUMPI PUSH1 0x0 CALLDATALOAD PUSH1 0xE0 SHR DUP1 PUSH4 0x5C975ABB GT PUSH2 0x10C JUMPI DUP1 PUSH4 0xA217FDDF GT PUSH2 0x9A JUMPI DUP1 PUSH4 0xC87B56DD GT PUSH2 0x6C JUMPI DUP1 PUSH4 0xC87B56DD EQ PUSH2 0x646 JUMPI DUP1 PUSH4 0xD082E381 EQ PUSH2 0x666 JUMPI DUP1 PUSH4 0xD547741F EQ PUSH2 0x67C JUMPI DUP1 PUSH4 0xD64A0D0C EQ PUSH2 0x69C JUMPI DUP1 PUSH4 0xE985E9C5 EQ PUSH2 0x6B3 JUMPI STOP JUMPDEST DUP1 PUSH4 0xA217FDDF EQ PUSH2 0x5D1 JUMPI DUP1 PUSH4 0xA22CB465 EQ PUSH2 0x5E6 JUMPI DUP1 PUSH4 0xB88D4FDE EQ PUSH2 0x606 JUMPI DUP1 PUSH4 0xBEDB86FB EQ PUSH2 0x626 JUMPI STOP JUMPDEST DUP1 PUSH4 0x6FF1C9BC GT PUSH2 0xDE JUMPI DUP1 PUSH4 0x6FF1C9BC EQ PUSH2 0x526 JUMPI DUP1 PUSH4 0x70A08231 EQ PUSH2 0x546 JUMPI DUP1 PUSH4 0x8E2DE4D3 EQ PUSH2 0x566 JUMPI DUP1 PUSH4 0x91D14854 EQ PUSH2 0x59C JUMPI DUP1 PUSH4 0x95D89B41 EQ PUSH2 0x5BC JUMPI STOP JUMPDEST DUP1 PUSH4 0x5C975ABB EQ PUSH2 0x494 JUMPI DUP1 PUSH4 0x6352211E EQ PUSH2 0x4AC JUMPI DUP1 PUSH4 0x6844B827 EQ PUSH2 0x4CC JUMPI DUP1 PUSH4 0x6C0360EB EQ PUSH2 0x511 JUMPI STOP JUMPDEST DUP1 PUSH4 0x254BB742 GT PUSH2 0x189 JUMPI DUP1 PUSH4 0x3B2BCBF1 GT PUSH2 0x15B JUMPI DUP1 PUSH4 0x3B2BCBF1 EQ PUSH2 0x3F4 JUMPI DUP1 PUSH4 0x40C10F19 EQ PUSH2 0x414 JUMPI DUP1 PUSH4 0x42842E0E EQ PUSH2 0x434 JUMPI DUP1 PUSH4 0x42966C68 EQ PUSH2 0x454 JUMPI DUP1 PUSH4 0x55F804B3 EQ PUSH2 0x474 JUMPI STOP JUMPDEST DUP1 PUSH4 0x254BB742 EQ PUSH2 0x374 JUMPI DUP1 PUSH4 0x2750CFDC EQ PUSH2 0x394 JUMPI DUP1 PUSH4 0x2F2FF15D EQ PUSH2 0x3B4 JUMPI DUP1 PUSH4 0x36568ABE EQ PUSH2 0x3D4 JUMPI STOP JUMPDEST DUP1 PUSH4 0x95EA7B3 GT PUSH2 0x1CD JUMPI DUP1 PUSH4 0x95EA7B3 EQ PUSH2 0x2CF JUMPI DUP1 PUSH4 0xA564C08 EQ PUSH2 0x2EF JUMPI DUP1 PUSH4 0x1FE543E3 EQ PUSH2 0x304 JUMPI DUP1 PUSH4 0x23B872DD EQ PUSH2 0x324 JUMPI DUP1 PUSH4 0x248A9CA3 EQ PUSH2 0x344 JUMPI STOP JUMPDEST DUP1 PUSH4 0x1FFC9A7 EQ PUSH2 0x204 JUMPI DUP1 PUSH4 0x6FDDE03 EQ PUSH2 0x23A JUMPI DUP1 PUSH4 0x750B163 EQ PUSH2 0x25C JUMPI DUP1 PUSH4 0x81812FC EQ PUSH2 0x297 JUMPI STOP JUMPDEST CALLDATASIZE PUSH2 0x202 JUMPI STOP JUMPDEST STOP JUMPDEST CALLVALUE DUP1 ISZERO PUSH2 0x210 JUMPI PUSH1 0x0 DUP1 REVERT JUMPDEST POP PUSH2 0x225 PUSH2 0x21F CALLDATASIZE PUSH1 0x4 PUSH2 0x202A JUMP JUMPDEST POP PUSH1 0x0 SWAP1 JUMP JUMPDEST PUSH1 0x40 MLOAD SWAP1 ISZERO ISZERO DUP2 MSTORE PUSH1 0x20 ADD JUMPDEST PUSH1 0x40 MLOAD DUP1 SWAP2 SUB SWAP1 RETURN JUMPDEST CALLVALUE DUP1 ISZERO PUSH2 0x246 JUMPI PUSH1 0x0 DUP1 REVERT JUMPDEST POP PUSH2 0x24F PUSH2 0x6FC JUMP JUMPDEST PUSH1 0x40 MLOAD PUSH2 0x231 SWAP2 SWAP1 PUSH2 0x2097 JUMP JUMPDEST CALLVALUE DUP1 ISZERO PUSH2 0x268 JUMPI PUSH1 0x0 DUP1 REVERT JUMPDEST POP PUSH2 0x289 PUSH2 0x277 CALLDATASIZE PUSH1 0x4 PUSH2 0x20AA JUMP JUMPDEST PUSH1 0x13 PUSH1 0x20 MSTORE PUSH1 0x0 SWAP1 DUP2 MSTORE PUSH1 0x40 SWAP1 KECCAK256 SLOAD DUP2 JUMP JUMPDEST PUSH1 0x40 MLOAD SWAP1 DUP2 MSTORE PUSH1 0x20 ADD PUSH2 0x231 JUMP JUMPDEST CALLVALUE DUP1 ISZERO PUSH2 0x2A3 JUMPI PUSH1 0x0 DUP1 REVERT JUMPDEST POP PUSH2 0x2B7 PUSH2 0x2B2 CALLDATASIZE PUSH1 0x4 PUSH2 0x20AA JUMP JUMPDEST PUSH2 0x78E JUMP JUMPDEST PUSH1 0x40 MLOAD PUSH1 0x1 PUSH1 0x1 PUSH1 0xA0 SHL SUB SWAP1 SWAP2 AND DUP2 MSTORE PUSH1 0x20 ADD PUSH2 0x231 JUMP JUMPDEST CALLVALUE DUP1 ISZERO PUSH2 0x2DB JUMPI PUSH1 0x0 DUP1 REVERT JUMPDEST POP PUSH2 0x202 PUSH2 0x2EA CALLDATASIZE PUSH1 0x4 PUSH2 0x20DF JUMP JUMPDEST PUSH2 0x7B5 JUMP JUMPDEST CALLVALUE DUP1 ISZERO PUSH2 0x2FB JUMPI PUSH1 0x0 DUP1 REVERT JUMPDEST POP PUSH2 0x289 PUSH2 0x8CF JUMP JUMPDEST CALLVALUE DUP1 ISZERO PUSH2 0x310 JUMPI PUSH1 0x0 DUP1 REVERT JUMPDEST POP PUSH2 0x202 PUSH2 0x31F CALLDATASIZE PUSH1 0x4 PUSH2 0x2150 JUMP JUMPDEST PUSH2 0x9E8 JUMP JUMPDEST CALLVALUE DUP1 ISZERO PUSH2 0x330 JUMPI PUSH1 0x0 DUP1 REVERT JUMPDEST POP PUSH2 0x202 PUSH2 0x33F CALLDATASIZE PUSH1 0x4 PUSH2 0x2202 JUMP JUMPDEST PUSH2 0xA70 JUMP JUMPDEST CALLVALUE DUP1 ISZERO PUSH2 0x350 JUMPI PUSH1 0x0 DUP1 REVERT JUMPDEST POP PUSH2 0x289 PUSH2 0x35F CALLDATASIZE PUSH1 0x4 PUSH2 0x20AA JUMP JUMPDEST PUSH1 0x0 SWAP1 DUP2 MSTORE PUSH1 0x6 PUSH1 0x20 MSTORE PUSH1 0x40 SWAP1 KECCAK256 PUSH1 0x1 ADD SLOAD SWAP1 JUMP JUMPDEST CALLVALUE DUP1 ISZERO PUSH2 0x380 JUMPI PUSH1 0x0 DUP1 REVERT JUMPDEST POP PUSH2 0x202 PUSH2 0x38F CALLDATASIZE PUSH1 0x4 PUSH2 0x223E JUMP JUMPDEST PUSH2 0xAA2 JUMP JUMPDEST CALLVALUE DUP1 ISZERO PUSH2 0x3A0 JUMPI PUSH1 0x0 DUP1 REVERT JUMPDEST POP PUSH2 0x202 PUSH2 0x3AF CALLDATASIZE PUSH1 0x4 PUSH2 0x20AA JUMP JUMPDEST PUSH2 0xAE1 JUMP JUMPDEST CALLVALUE DUP1 ISZERO PUSH2 0x3C0 JUMPI PUSH1 0x0 DUP1 REVERT JUMPDEST POP PUSH2 0x202 PUSH2 0x3CF CALLDATASIZE PUSH1 0x4 PUSH2 0x2268 JUMP JUMPDEST PUSH2 0xAF2 JUMP JUMPDEST CALLVALUE DUP1 ISZERO PUSH2 0x3E0 JUMPI PUSH1 0x0 DUP1 REVERT JUMPDEST POP PUSH2 0x202 PUSH2 0x3EF CALLDATASIZE PUSH1 0x4 PUSH2 0x2268 JUMP JUMPDEST PUSH2 0xB17 JUMP JUMPDEST CALLVALUE DUP1 ISZERO PUSH2 0x400 JUMPI PUSH1 0x0 DUP1 REVERT JUMPDEST POP PUSH1 0xE SLOAD PUSH2 0x2B7 SWAP1 PUSH1 0x1 PUSH1 0x1 PUSH1 0xA0 SHL SUB AND DUP2 JUMP JUMPDEST CALLVALUE DUP1 ISZERO PUSH2 0x420 JUMPI PUSH1 0x0 DUP1 REVERT JUMPDEST POP PUSH2 0x202 PUSH2 0x42F CALLDATASIZE PUSH1 0x4 PUSH2 0x20DF JUMP JUMPDEST PUSH2 0xB91 JUMP JUMPDEST CALLVALUE DUP1 ISZERO PUSH2 0x440 JUMPI PUSH1 0x0 DUP1 REVERT JUMPDEST POP PUSH2 0x202 PUSH2 0x44F CALLDATASIZE PUSH1 0x4 PUSH2 0x2202 JUMP JUMPDEST PUSH2 0xC62 JUMP JUMPDEST CALLVALUE DUP1 ISZERO PUSH2 0x460 JUMPI PUSH1 0x0 DUP1 REVERT JUMPDEST POP PUSH2 0x202 PUSH2 0x46F CALLDATASIZE PUSH1 0x4 PUSH2 0x20AA JUMP JUMPDEST PUSH2 0xC7D JUMP JUMPDEST CALLVALUE DUP1 ISZERO PUSH2 0x480 JUMPI PUSH1 0x0 DUP1 REVERT JUMPDEST POP PUSH2 0x202 PUSH2 0x48F CALLDATASIZE PUSH1 0x4 PUSH2 0x22EC JUMP JUMPDEST PUSH2 0xCAE JUMP JUMPDEST CALLVALUE DUP1 ISZERO PUSH2 0x4A0 JUMPI PUSH1 0x0 DUP1 REVERT JUMPDEST POP PUSH1 0x7 SLOAD PUSH1 0xFF AND PUSH2 0x225 JUMP JUMPDEST CALLVALUE DUP1 ISZERO PUSH2 0x4B8 JUMPI PUSH1 0x0 DUP1 REVERT JUMPDEST POP PUSH2 0x2B7 PUSH2 0x4C7 CALLDATASIZE PUSH1 0x4 PUSH2 0x20AA JUMP JUMPDEST PUSH2 0xCC5 JUMP JUMPDEST CALLVALUE DUP1 ISZERO PUSH2 0x4D8 JUMPI PUSH1 0x0 DUP1 REVERT JUMPDEST POP PUSH2 0x503 PUSH2 0x4E7 CALLDATASIZE PUSH1 0x4 PUSH2 0x20AA JUMP JUMPDEST PUSH1 0x12 PUSH1 0x20 MSTORE PUSH1 0x0 SWAP1 DUP2 MSTORE PUSH1 0x40 SWAP1 KECCAK256 DUP1 SLOAD PUSH1 0x1 SWAP1 SWAP2 ADD SLOAD PUSH1 0xFF AND DUP3 JUMP JUMPDEST PUSH1 0x40 MLOAD PUSH2 0x231 SWAP3 SWAP2 SWAP1 PUSH2 0x236D JUMP JUMPDEST CALLVALUE DUP1 ISZERO PUSH2 0x51D JUMPI PUSH1 0x0 DUP1 REVERT JUMPDEST POP PUSH2 0x24F PUSH2 0xD2B JUMP JUMPDEST CALLVALUE DUP1 ISZERO PUSH2 0x532 JUMPI PUSH1 0x0 DUP1 REVERT JUMPDEST POP PUSH2 0x202 PUSH2 0x541 CALLDATASIZE PUSH1 0x4 PUSH2 0x2381 JUMP JUMPDEST PUSH2 0xDB9 JUMP JUMPDEST CALLVALUE DUP1 ISZERO PUSH2 0x552 JUMPI PUSH1 0x0 DUP1 REVERT JUMPDEST POP PUSH2 0x289 PUSH2 0x561 CALLDATASIZE PUSH1 0x4 PUSH2 0x2381 JUMP JUMPDEST PUSH2 0xDC4 JUMP JUMPDEST CALLVALUE DUP1 ISZERO PUSH2 0x572 JUMPI PUSH1 0x0 DUP1 REVERT JUMPDEST POP PUSH2 0x2B7 PUSH2 0x581 CALLDATASIZE PUSH1 0x4 PUSH2 0x20AA JUMP JUMPDEST PUSH1 0x10 PUSH1 0x20 MSTORE PUSH1 0x0 SWAP1 DUP2 MSTORE PUSH1 0x40 SWAP1 KECCAK256 SLOAD PUSH1 0x1 PUSH1 0x1 PUSH1 0xA0 SHL SUB AND DUP2 JUMP JUMPDEST CALLVALUE DUP1 ISZERO PUSH2 0x5A8 JUMPI PUSH1 0x0 DUP1 REVERT JUMPDEST POP PUSH2 0x225 PUSH2 0x5B7 CALLDATASIZE PUSH1 0x4 PUSH2 0x2268 JUMP JUMPDEST PUSH2 0xE4A JUMP JUMPDEST CALLVALUE DUP1 ISZERO PUSH2 0x5C8 JUMPI PUSH1 0x0 DUP1 REVERT JUMPDEST POP PUSH2 0x24F PUSH2 0xE75 JUMP JUMPDEST CALLVALUE DUP1 ISZERO PUSH2 0x5DD JUMPI PUSH1 0x0 DUP1 REVERT JUMPDEST POP PUSH2 0x289 PUSH1 0x0 DUP2 JUMP JUMPDEST CALLVALUE DUP1 ISZERO PUSH2 0x5F2 JUMPI PUSH1 0x0 DUP1 REVERT JUMPDEST POP PUSH2 0x202 PUSH2 0x601 CALLDATASIZE PUSH1 0x4 PUSH2 0x23AC JUMP JUMPDEST PUSH2 0xE84 JUMP JUMPDEST CALLVALUE DUP1 ISZERO PUSH2 0x612 JUMPI PUSH1 0x0 DUP1 REVERT JUMPDEST POP PUSH2 0x202 PUSH2 0x621 CALLDATASIZE PUSH1 0x4 PUSH2 0x23D6 JUMP JUMPDEST PUSH2 0xE8F JUMP JUMPDEST CALLVALUE DUP1 ISZERO PUSH2 0x632 JUMPI PUSH1 0x0 DUP1 REVERT JUMPDEST POP PUSH2 0x202 PUSH2 0x641 CALLDATASIZE PUSH1 0x4 PUSH2 0x2452 JUMP JUMPDEST PUSH2 0xEC7 JUMP JUMPDEST CALLVALUE DUP1 ISZERO PUSH2 0x652 JUMPI PUSH1 0x0 DUP1 REVERT JUMPDEST POP PUSH2 0x24F PUSH2 0x661 CALLDATASIZE PUSH1 0x4 PUSH2 0x20AA JUMP JUMPDEST PUSH2 0xEE7 JUMP JUMPDEST CALLVALUE DUP1 ISZERO PUSH2 0x672 JUMPI PUSH1 0x0 DUP1 REVERT JUMPDEST POP PUSH2 0x289 PUSH1 0xD SLOAD DUP2 JUMP JUMPDEST CALLVALUE DUP1 ISZERO PUSH2 0x688 JUMPI PUSH1 0x0 DUP1 REVERT JUMPDEST POP PUSH2 0x202 PUSH2 0x697 CALLDATASIZE PUSH1 0x4 PUSH2 0x2268 JUMP JUMPDEST PUSH2 0xF89 JUMP JUMPDEST CALLVALUE DUP1 ISZERO PUSH2 0x6A8 JUMPI PUSH1 0x0 DUP1 REVERT JUMPDEST POP PUSH1 0x9 SLOAD PUSH2 0x289 SWAP1 DUP2 JUMP JUMPDEST CALLVALUE DUP1 ISZERO PUSH2 0x6BF JUMPI PUSH1 0x0 DUP1 REVERT JUMPDEST POP PUSH2 0x225 PUSH2 0x6CE CALLDATASIZE PUSH1 0x4 PUSH2 0x246D JUMP JUMPDEST PUSH1 0x1 PUSH1 0x1 PUSH1 0xA0 SHL SUB SWAP2 DUP3 AND PUSH1 0x0 SWAP1 DUP2 MSTORE PUSH1 0x5 PUSH1 0x20 SWAP1 DUP2 MSTORE PUSH1 0x40 DUP1 DUP4 KECCAK256 SWAP4 SWAP1 SWAP5 AND DUP3 MSTORE SWAP2 SWAP1 SWAP2 MSTORE KECCAK256 SLOAD PUSH1 0xFF AND SWAP1 JUMP JUMPDEST PUSH1 0x60 PUSH1 0x0 DUP1 SLOAD PUSH2 0x70B SWAP1 PUSH2 0x2497 JUMP JUMPDEST DUP1 PUSH1 0x1F ADD PUSH1 0x20 DUP1 SWAP2 DIV MUL PUSH1 0x20 ADD PUSH1 0x40 MLOAD SWAP1 DUP2 ADD PUSH1 0x40 MSTORE DUP1 SWAP3 SWAP2 SWAP1 DUP2 DUP2 MSTORE PUSH1 0x20 ADD DUP3 DUP1 SLOAD PUSH2 0x737 SWAP1 PUSH2 0x2497 JUMP JUMPDEST DUP1 ISZERO PUSH2 0x784 JUMPI DUP1 PUSH1 0x1F LT PUSH2 0x759 JUMPI PUSH2 0x100 DUP1 DUP4 SLOAD DIV MUL DUP4 MSTORE SWAP2 PUSH1 0x20 ADD SWAP2 PUSH2 0x784 JUMP JUMPDEST DUP3 ADD SWAP2 SWAP1 PUSH1 0x0 MSTORE PUSH1 0x20 PUSH1 0x0 KECCAK256 SWAP1 JUMPDEST DUP2 SLOAD DUP2 MSTORE SWAP1 PUSH1 0x1 ADD SWAP1 PUSH1 0x20 ADD DUP1 DUP4 GT PUSH2 0x767 JUMPI DUP3 SWAP1 SUB PUSH1 0x1F AND DUP3 ADD SWAP2 JUMPDEST POP POP POP POP POP SWAP1 POP SWAP1 JUMP JUMPDEST PUSH1 0x0 PUSH2 0x799 DUP3 PUSH2 0xFAE JUMP JUMPDEST POP PUSH1 0x0 SWAP1 DUP2 MSTORE PUSH1 0x4 PUSH1 0x20 MSTORE PUSH1 0x40 SWAP1 KECCAK256 SLOAD PUSH1 0x1 PUSH1 0x1 PUSH1 0xA0 SHL SUB AND SWAP1 JUMP JUMPDEST PUSH1 0x0 PUSH2 0x7C0 DUP3 PUSH2 0xCC5 JUMP JUMPDEST SWAP1 POP DUP1 PUSH1 0x1 PUSH1 0x1 PUSH1 0xA0 SHL SUB AND DUP4 PUSH1 0x1 PUSH1 0x1 PUSH1 0xA0 SHL SUB AND SUB PUSH2 0x832 JUMPI PUSH1 0x40 MLOAD PUSH3 0x461BCD PUSH1 0xE5 SHL DUP2 MSTORE PUSH1 0x20 PUSH1 0x4 DUP3 ADD MSTORE PUSH1 0x21 PUSH1 0x24 DUP3 ADD MSTORE PUSH32 0x4552433732313A20617070726F76616C20746F2063757272656E74206F776E65 PUSH1 0x44 DUP3 ADD MSTORE PUSH1 0x39 PUSH1 0xF9 SHL PUSH1 0x64 DUP3 ADD MSTORE PUSH1 0x84 ADD JUMPDEST PUSH1 0x40 MLOAD DUP1 SWAP2 SUB SWAP1 REVERT JUMPDEST CALLER PUSH1 0x1 PUSH1 0x1 PUSH1 0xA0 SHL SUB DUP3 AND EQ DUP1 PUSH2 0x84E JUMPI POP PUSH2 0x84E DUP2 CALLER PUSH2 0x6CE JUMP JUMPDEST PUSH2 0x8C0 JUMPI PUSH1 0x40 MLOAD PUSH3 0x461BCD PUSH1 0xE5 SHL DUP2 MSTORE PUSH1 0x20 PUSH1 0x4 DUP3 ADD MSTORE PUSH1 0x3D PUSH1 0x24 DUP3 ADD MSTORE PUSH32 0x4552433732313A20617070726F76652063616C6C6572206973206E6F7420746F PUSH1 0x44 DUP3 ADD MSTORE PUSH32 0x6B656E206F776E6572206F7220617070726F76656420666F7220616C6C000000 PUSH1 0x64 DUP3 ADD MSTORE PUSH1 0x84 ADD PUSH2 0x829 JUMP JUMPDEST PUSH2 0x8CA DUP4 DUP4 PUSH2 0x100D JUMP JUMPDEST POP POP POP JUMP JUMPDEST PUSH1 0xE SLOAD PUSH1 0xB SLOAD PUSH1 0xC SLOAD PUSH1 0xA SLOAD PUSH1 0x40 MLOAD PUSH4 0x5D3B1D3 PUSH1 0xE4 SHL DUP2 MSTORE PUSH1 0x4 DUP2 ADD SWAP4 SWAP1 SWAP4 MSTORE PUSH1 0x1 PUSH1 0x40 SHL DUP3 DIV PUSH8 0xFFFFFFFFFFFFFFFF AND PUSH1 0x24 DUP5 ADD MSTORE PUSH2 0xFFFF AND PUSH1 0x44 DUP4 ADD MSTORE PUSH4 0xFFFFFFFF DUP1 DUP3 AND PUSH1 0x64 DUP5 ADD MSTORE PUSH5 0x100000000 SWAP1 SWAP2 DIV AND PUSH1 0x84 DUP3 ADD MSTORE PUSH1 0x0 SWAP2 DUP3 SWAP2 PUSH1 0x1 PUSH1 0x1 PUSH1 0xA0 SHL SUB SWAP1 SWAP2 AND SWAP1 PUSH4 0x5D3B1D30 SWAP1 PUSH1 0xA4 ADD PUSH1 0x20 PUSH1 0x40 MLOAD DUP1 DUP4 SUB DUP2 PUSH1 0x0 DUP8 GAS CALL ISZERO DUP1 ISZERO PUSH2 0x964 JUMPI RETURNDATASIZE PUSH1 0x0 DUP1 RETURNDATACOPY RETURNDATASIZE PUSH1 0x0 REVERT JUMPDEST POP POP POP POP PUSH1 0x40 MLOAD RETURNDATASIZE PUSH1 0x1F NOT PUSH1 0x1F DUP3 ADD AND DUP3 ADD DUP1 PUSH1 0x40 MSTORE POP DUP2 ADD SWAP1 PUSH2 0x988 SWAP2 SWAP1 PUSH2 0x24D1 JUMP JUMPDEST PUSH1 0x0 DUP2 DUP2 MSTORE PUSH1 0x10 PUSH1 0x20 MSTORE PUSH1 0x40 SWAP1 DUP2 SWAP1 KECCAK256 DUP1 SLOAD PUSH1 0x1 PUSH1 0x1 PUSH1 0xA0 SHL SUB NOT AND CALLER OR SWAP1 SSTORE MLOAD SWAP1 SWAP2 POP PUSH32 0xAA7F137F33E9E340F3B7913F08ACDDE444B9A6D59173AD46EDC378BD024B8779 SWAP1 PUSH2 0x9DB SWAP1 DUP4 DUP2 MSTORE PUSH1 0x20 ADD SWAP1 JUMP JUMPDEST PUSH1 0x40 MLOAD DUP1 SWAP2 SUB SWAP1 LOG1 SWAP2 SWAP1 POP JUMP JUMPDEST CALLER PUSH1 0x1 PUSH1 0x1 PUSH1 0xA0 SHL SUB PUSH32 0x0 AND EQ PUSH2 0xA62 JUMPI PUSH1 0x40 MLOAD PUSH4 0x73E64FD PUSH1 0xE2 SHL DUP2 MSTORE CALLER PUSH1 0x4 DUP3 ADD MSTORE PUSH1 0x1 PUSH1 0x1 PUSH1 0xA0 SHL SUB PUSH32 0x0 AND PUSH1 0x24 DUP3 ADD MSTORE PUSH1 0x44 ADD PUSH2 0x829 JUMP JUMPDEST PUSH2 0xA6C DUP3 DUP3 PUSH2 0x107B JUMP JUMPDEST POP POP JUMP JUMPDEST PUSH2 0xA7B CALLER JUMPDEST DUP3 PUSH2 0x1432 JUMP JUMPDEST PUSH2 0xA97 JUMPI PUSH1 0x40 MLOAD PUSH3 0x461BCD PUSH1 0xE5 SHL DUP2 MSTORE PUSH1 0x4 ADD PUSH2 0x829 SWAP1 PUSH2 0x24EA JUMP JUMPDEST PUSH2 0x8CA DUP4 DUP4 DUP4 PUSH2 0x14B1 JUMP JUMPDEST PUSH1 0x0 PUSH2 0xAAD DUP2 PUSH2 0x1615 JUMP JUMPDEST POP PUSH1 0xC DUP1 SLOAD PUSH8 0xFFFFFFFFFFFFFFFF SWAP1 SWAP3 AND PUSH1 0x1 PUSH1 0x40 SHL MUL PUSH16 0xFFFFFFFFFFFFFFFF0000000000000000 NOT SWAP1 SWAP3 AND SWAP2 SWAP1 SWAP2 OR SWAP1 SSTORE JUMP JUMPDEST PUSH1 0x0 PUSH2 0xAEC DUP2 PUSH2 0x1615 JUMP JUMPDEST POP PUSH1 0xB SSTORE JUMP JUMPDEST PUSH1 0x0 DUP3 DUP2 MSTORE PUSH1 0x6 PUSH1 0x20 MSTORE PUSH1 0x40 SWAP1 KECCAK256 PUSH1 0x1 ADD SLOAD PUSH2 0xB0D DUP2 PUSH2 0x1615 JUMP JUMPDEST PUSH2 0x8CA DUP4 DUP4 PUSH2 0x161F JUMP JUMPDEST PUSH1 0x1 PUSH1 0x1 PUSH1 0xA0 SHL SUB DUP2 AND CALLER EQ PUSH2 0xB87 JUMPI PUSH1 0x40 MLOAD PUSH3 0x461BCD PUSH1 0xE5 SHL DUP2 MSTORE PUSH1 0x20 PUSH1 0x4 DUP3 ADD MSTORE PUSH1 0x2F PUSH1 0x24 DUP3 ADD MSTORE PUSH32 0x416363657373436F6E74726F6C3A2063616E206F6E6C792072656E6F756E6365 PUSH1 0x44 DUP3 ADD MSTORE PUSH15 0x103937B632B9903337B91039B2B633 PUSH1 0x89 SHL PUSH1 0x64 DUP3 ADD MSTORE PUSH1 0x84 ADD PUSH2 0x829 JUMP JUMPDEST PUSH2 0xA6C DUP3 DUP3 PUSH2 0x16A5 JUMP JUMPDEST PUSH1 0x0 PUSH2 0xB9C DUP2 PUSH2 0x1615 JUMP JUMPDEST PUSH2 0xBAA PUSH1 0x9 DUP1 SLOAD PUSH1 0x1 ADD SWAP1 SSTORE JUMP JUMPDEST PUSH1 0x0 PUSH2 0xBB5 PUSH1 0x9 SLOAD SWAP1 JUMP JUMPDEST SWAP1 POP PUSH1 0x0 PUSH1 0xF PUSH2 0xBC4 DUP6 PUSH2 0x170C JUMP JUMPDEST PUSH1 0x40 MLOAD PUSH1 0x20 ADD PUSH2 0xBD5 SWAP3 SWAP2 SWAP1 PUSH2 0x2537 JUMP JUMPDEST PUSH1 0x40 MLOAD PUSH1 0x20 DUP2 DUP4 SUB SUB DUP2 MSTORE SWAP1 PUSH1 0x40 MSTORE SWAP1 POP PUSH2 0xBF0 DUP6 DUP4 PUSH2 0x179F JUMP JUMPDEST DUP1 PUSH1 0x11 PUSH1 0x0 PUSH2 0xBFE PUSH1 0x9 SLOAD SWAP1 JUMP JUMPDEST DUP2 MSTORE PUSH1 0x20 ADD SWAP1 DUP2 MSTORE PUSH1 0x20 ADD PUSH1 0x0 KECCAK256 SWAP1 DUP2 PUSH2 0xC18 SWAP2 SWAP1 PUSH2 0x260C JUMP JUMPDEST POP PUSH1 0x40 DUP1 MLOAD PUSH1 0x1 PUSH1 0x1 PUSH1 0xA0 SHL SUB DUP8 AND DUP2 MSTORE PUSH1 0x20 DUP2 ADD DUP5 SWAP1 MSTORE PUSH32 0x30385C845B448A36257A6A1716E6AD2E1BC2CBE333CDE1E69FE849AD6511ADFE SWAP2 ADD PUSH1 0x40 MLOAD DUP1 SWAP2 SUB SWAP1 LOG1 POP POP POP POP POP JUMP JUMPDEST PUSH2 0x8CA DUP4 DUP4 DUP4 PUSH1 0x40 MLOAD DUP1 PUSH1 0x20 ADD PUSH1 0x40 MSTORE DUP1 PUSH1 0x0 DUP2 MSTORE POP PUSH2 0xE8F JUMP JUMPDEST PUSH2 0xC86 CALLER PUSH2 0xA75 JUMP JUMPDEST PUSH2 0xCA2 JUMPI PUSH1 0x40 MLOAD PUSH3 0x461BCD PUSH1 0xE5 SHL DUP2 MSTORE PUSH1 0x4 ADD PUSH2 0x829 SWAP1 PUSH2 0x24EA JUMP JUMPDEST PUSH2 0xCAB DUP2 PUSH2 0x17B9 JUMP JUMPDEST POP JUMP JUMPDEST PUSH1 0x0 PUSH2 0xCB9 DUP2 PUSH2 0x1615 JUMP JUMPDEST PUSH1 0xF PUSH2 0x8CA DUP4 DUP3 PUSH2 0x260C JUMP JUMPDEST PUSH1 0x0 DUP2 DUP2 MSTORE PUSH1 0x2 PUSH1 0x20 MSTORE PUSH1 0x40 DUP2 KECCAK256 SLOAD PUSH1 0x1 PUSH1 0x1 PUSH1 0xA0 SHL SUB AND DUP1 PUSH2 0xD25 JUMPI PUSH1 0x40 MLOAD PUSH3 0x461BCD PUSH1 0xE5 SHL DUP2 MSTORE PUSH1 0x20 PUSH1 0x4 DUP3 ADD MSTORE PUSH1 0x18 PUSH1 0x24 DUP3 ADD MSTORE PUSH24 0x115490CDCC8C4E881A5B9D985B1A59081D1BDAD95B881251 PUSH1 0x42 SHL PUSH1 0x44 DUP3 ADD MSTORE PUSH1 0x64 ADD PUSH2 0x829 JUMP JUMPDEST SWAP3 SWAP2 POP POP JUMP JUMPDEST PUSH1 0xF DUP1 SLOAD PUSH2 0xD38 SWAP1 PUSH2 0x2497 JUMP JUMPDEST DUP1 PUSH1 0x1F ADD PUSH1 0x20 DUP1 SWAP2 DIV MUL PUSH1 0x20 ADD PUSH1 0x40 MLOAD SWAP1 DUP2 ADD PUSH1 0x40 MSTORE DUP1 SWAP3 SWAP2 SWAP1 DUP2 DUP2 MSTORE PUSH1 0x20 ADD DUP3 DUP1 SLOAD PUSH2 0xD64 SWAP1 PUSH2 0x2497 JUMP JUMPDEST DUP1 ISZERO PUSH2 0xDB1 JUMPI DUP1 PUSH1 0x1F LT PUSH2 0xD86 JUMPI PUSH2 0x100 DUP1 DUP4 SLOAD DIV MUL DUP4 MSTORE SWAP2 PUSH1 0x20 ADD SWAP2 PUSH2 0xDB1 JUMP JUMPDEST DUP3 ADD SWAP2 SWAP1 PUSH1 0x0 MSTORE PUSH1 0x20 PUSH1 0x0 KECCAK256 SWAP1 JUMPDEST DUP2 SLOAD DUP2 MSTORE SWAP1 PUSH1 0x1 ADD SWAP1 PUSH1 0x20 ADD DUP1 DUP4 GT PUSH2 0xD94 JUMPI DUP3 SWAP1 SUB PUSH1 0x1F AND DUP3 ADD SWAP2 JUMPDEST POP POP POP POP POP DUP2 JUMP JUMPDEST PUSH1 0x0 PUSH2 0xA6C DUP2 PUSH2 0x1615 JUMP JUMPDEST PUSH1 0x0 PUSH1 0x1 PUSH1 0x1 PUSH1 0xA0 SHL SUB DUP3 AND PUSH2 0xE2E JUMPI PUSH1 0x40 MLOAD PUSH3 0x461BCD PUSH1 0xE5 SHL DUP2 MSTORE PUSH1 0x20 PUSH1 0x4 DUP3 ADD MSTORE PUSH1 0x29 PUSH1 0x24 DUP3 ADD MSTORE PUSH32 0x4552433732313A2061646472657373207A65726F206973206E6F742061207661 PUSH1 0x44 DUP3 ADD MSTORE PUSH9 0x3634B21037BBB732B9 PUSH1 0xB9 SHL PUSH1 0x64 DUP3 ADD MSTORE PUSH1 0x84 ADD PUSH2 0x829 JUMP JUMPDEST POP PUSH1 0x1 PUSH1 0x1 PUSH1 0xA0 SHL SUB AND PUSH1 0x0 SWAP1 DUP2 MSTORE PUSH1 0x3 PUSH1 0x20 MSTORE PUSH1 0x40 SWAP1 KECCAK256 SLOAD SWAP1 JUMP JUMPDEST PUSH1 0x0 SWAP2 DUP3 MSTORE PUSH1 0x6 PUSH1 0x20 SWAP1 DUP2 MSTORE PUSH1 0x40 DUP1 DUP5 KECCAK256 PUSH1 0x1 PUSH1 0x1 PUSH1 0xA0 SHL SUB SWAP4 SWAP1 SWAP4 AND DUP5 MSTORE SWAP2 SWAP1 MSTORE SWAP1 KECCAK256 SLOAD PUSH1 0xFF AND SWAP1 JUMP JUMPDEST PUSH1 0x60 PUSH1 0x1 DUP1 SLOAD PUSH2 0x70B SWAP1 PUSH2 0x2497 JUMP JUMPDEST PUSH2 0xA6C CALLER DUP4 DUP4 PUSH2 0x184E JUMP JUMPDEST PUSH2 0xE99 CALLER DUP4 PUSH2 0x1432 JUMP JUMPDEST PUSH2 0xEB5 JUMPI PUSH1 0x40 MLOAD PUSH3 0x461BCD PUSH1 0xE5 SHL DUP2 MSTORE PUSH1 0x4 ADD PUSH2 0x829 SWAP1 PUSH2 0x24EA JUMP JUMPDEST PUSH2 0xEC1 DUP5 DUP5 DUP5 DUP5 PUSH2 0x191C JUMP JUMPDEST POP POP POP POP JUMP JUMPDEST PUSH1 0x0 PUSH2 0xED2 DUP2 PUSH2 0x1615 JUMP JUMPDEST DUP2 PUSH2 0xEDF JUMPI PUSH2 0xA6C PUSH2 0x194F JUMP JUMPDEST PUSH2 0xA6C PUSH2 0x19A1 JUMP JUMPDEST PUSH1 0x0 DUP2 DUP2 MSTORE PUSH1 0x11 PUSH1 0x20 MSTORE PUSH1 0x40 SWAP1 KECCAK256 DUP1 SLOAD PUSH1 0x60 SWAP2 SWAP1 PUSH2 0xF04 SWAP1 PUSH2 0x2497 JUMP JUMPDEST DUP1 PUSH1 0x1F ADD PUSH1 0x20 DUP1 SWAP2 DIV MUL PUSH1 0x20 ADD PUSH1 0x40 MLOAD SWAP1 DUP2 ADD PUSH1 0x40 MSTORE DUP1 SWAP3 SWAP2 SWAP1 DUP2 DUP2 MSTORE PUSH1 0x20 ADD DUP3 DUP1 SLOAD PUSH2 0xF30 SWAP1 PUSH2 0x2497 JUMP JUMPDEST DUP1 ISZERO PUSH2 0xF7D JUMPI DUP1 PUSH1 0x1F LT PUSH2 0xF52 JUMPI PUSH2 0x100 DUP1 DUP4 SLOAD DIV MUL DUP4 MSTORE SWAP2 PUSH1 0x20 ADD SWAP2 PUSH2 0xF7D JUMP JUMPDEST DUP3 ADD SWAP2 SWAP1 PUSH1 0x0 MSTORE PUSH1 0x20 PUSH1 0x0 KECCAK256 SWAP1 JUMPDEST DUP2 SLOAD DUP2 MSTORE SWAP1 PUSH1 0x1 ADD SWAP1 PUSH1 0x20 ADD DUP1 DUP4 GT PUSH2 0xF60 JUMPI DUP3 SWAP1 SUB PUSH1 0x1F AND DUP3 ADD SWAP2 JUMPDEST POP POP POP POP POP SWAP1 POP SWAP2 SWAP1 POP JUMP JUMPDEST PUSH1 0x0 DUP3 DUP2 MSTORE PUSH1 0x6 PUSH1 0x20 MSTORE PUSH1 0x40 SWAP1 KECCAK256 PUSH1 0x1 ADD SLOAD PUSH2 0xFA4 DUP2 PUSH2 0x1615 JUMP JUMPDEST PUSH2 0x8CA DUP4 DUP4 PUSH2 0x16A5 JUMP JUMPDEST PUSH1 0x0 DUP2 DUP2 MSTORE PUSH1 0x2 PUSH1 0x20 MSTORE PUSH1 0x40 SWAP1 KECCAK256 SLOAD PUSH1 0x1 PUSH1 0x1 PUSH1 0xA0 SHL SUB AND PUSH2 0xCAB JUMPI PUSH1 0x40 MLOAD PUSH3 0x461BCD PUSH1 0xE5 SHL DUP2 MSTORE PUSH1 0x20 PUSH1 0x4 DUP3 ADD MSTORE PUSH1 0x18 PUSH1 0x24 DUP3 ADD MSTORE PUSH24 0x115490CDCC8C4E881A5B9D985B1A59081D1BDAD95B881251 PUSH1 0x42 SHL PUSH1 0x44 DUP3 ADD MSTORE PUSH1 0x64 ADD PUSH2 0x829 JUMP JUMPDEST PUSH1 0x0 DUP2 DUP2 MSTORE PUSH1 0x4 PUSH1 0x20 MSTORE PUSH1 0x40 SWAP1 KECCAK256 DUP1 SLOAD PUSH1 0x1 PUSH1 0x1 PUSH1 0xA0 SHL SUB NOT AND PUSH1 0x1 PUSH1 0x1 PUSH1 0xA0 SHL SUB DUP5 AND SWAP1 DUP2 OR SWAP1 SWAP2 SSTORE DUP2 SWAP1 PUSH2 0x1042 DUP3 PUSH2 0xCC5 JUMP JUMPDEST PUSH1 0x1 PUSH1 0x1 PUSH1 0xA0 SHL SUB AND PUSH32 0x8C5BE1E5EBEC7D5BD14F71427D1E84F3DD0314C0F7B2291E5B200AC8C7C3B925 PUSH1 0x40 MLOAD PUSH1 0x40 MLOAD DUP1 SWAP2 SUB SWAP1 LOG4 POP POP JUMP JUMPDEST PUSH2 0x1089 PUSH1 0x9 DUP1 SLOAD PUSH1 0x1 ADD SWAP1 SSTORE JUMP JUMPDEST PUSH1 0x0 PUSH2 0x1094 PUSH1 0x9 SLOAD SWAP1 JUMP JUMPDEST PUSH1 0x0 DUP5 DUP2 MSTORE PUSH1 0x10 PUSH1 0x20 SWAP1 DUP2 MSTORE PUSH1 0x40 DUP1 DUP4 KECCAK256 SLOAD DUP5 DUP5 MSTORE PUSH1 0x12 SWAP1 SWAP3 MSTORE DUP3 KECCAK256 DUP6 MLOAD SWAP4 SWAP5 POP PUSH1 0x1 PUSH1 0x1 PUSH1 0xA0 SHL SUB SWAP1 SWAP2 AND SWAP3 SWAP1 SWAP2 PUSH1 0x9 SWAP2 DUP7 SWAP2 SWAP1 PUSH2 0x10D5 JUMPI PUSH2 0x10D5 PUSH2 0x26CC JUMP JUMPDEST PUSH1 0x20 MUL PUSH1 0x20 ADD ADD MLOAD PUSH2 0x10E7 SWAP2 SWAP1 PUSH2 0x26E2 JUMP JUMPDEST PUSH1 0x0 SUB PUSH2 0x112B JUMPI PUSH1 0x1 DUP1 DUP3 ADD DUP1 SLOAD PUSH1 0x2 SWAP3 PUSH1 0xFF NOT SWAP1 SWAP2 AND SWAP1 DUP4 JUMPDEST MUL OR SWAP1 SSTORE POP DUP4 PUSH1 0x1 DUP2 MLOAD DUP2 LT PUSH2 0x1119 JUMPI PUSH2 0x1119 PUSH2 0x26CC JUMP JUMPDEST PUSH1 0x20 SWAP1 DUP2 MUL SWAP2 SWAP1 SWAP2 ADD ADD MLOAD DUP2 SSTORE PUSH2 0x1368 JUMP JUMPDEST PUSH1 0x8 DUP5 PUSH1 0x0 DUP2 MLOAD DUP2 LT PUSH2 0x1140 JUMPI PUSH2 0x1140 PUSH2 0x26CC JUMP JUMPDEST PUSH1 0x20 MUL PUSH1 0x20 ADD ADD MLOAD PUSH2 0x1152 SWAP2 SWAP1 PUSH2 0x26E2 JUMP JUMPDEST PUSH1 0x0 SUB PUSH2 0x1170 JUMPI PUSH1 0x1 DUP1 DUP3 ADD DUP1 SLOAD PUSH1 0x6 SWAP3 PUSH1 0xFF NOT SWAP1 SWAP2 AND SWAP1 DUP4 PUSH2 0x1101 JUMP JUMPDEST PUSH1 0x7 DUP5 PUSH1 0x0 DUP2 MLOAD DUP2 LT PUSH2 0x1185 JUMPI PUSH2 0x1185 PUSH2 0x26CC JUMP JUMPDEST PUSH1 0x20 MUL PUSH1 0x20 ADD ADD MLOAD PUSH2 0x1197 SWAP2 SWAP1 PUSH2 0x26E2 JUMP JUMPDEST PUSH1 0x0 SUB PUSH2 0x11B5 JUMPI PUSH1 0x1 DUP1 DUP3 ADD DUP1 SLOAD PUSH1 0x0 SWAP3 PUSH1 0xFF NOT SWAP1 SWAP2 AND SWAP1 DUP4 PUSH2 0x1101 JUMP JUMPDEST PUSH1 0x6 DUP5 PUSH1 0x0 DUP2 MLOAD DUP2 LT PUSH2 0x11CA JUMPI PUSH2 0x11CA PUSH2 0x26CC JUMP JUMPDEST PUSH1 0x20 MUL PUSH1 0x20 ADD ADD MLOAD PUSH2 0x11DC SWAP2 SWAP1 PUSH2 0x26E2 JUMP JUMPDEST PUSH1 0x0 SUB PUSH2 0x11F5 JUMPI PUSH1 0x1 DUP2 DUP2 ADD DUP1 SLOAD PUSH1 0xFF NOT AND DUP3 DUP1 PUSH2 0x1101 JUMP JUMPDEST PUSH1 0x5 DUP5 PUSH1 0x0 DUP2 MLOAD DUP2 LT PUSH2 0x120A JUMPI PUSH2 0x120A PUSH2 0x26CC JUMP JUMPDEST PUSH1 0x20 MUL PUSH1 0x20 ADD ADD MLOAD PUSH2 0x121C SWAP2 SWAP1 PUSH2 0x26E2 JUMP JUMPDEST PUSH1 0x0 SUB PUSH2 0x123A JUMPI PUSH1 0x1 DUP1 DUP3 ADD DUP1 SLOAD PUSH1 0x4 SWAP3 PUSH1 0xFF NOT SWAP1 SWAP2 AND SWAP1 DUP4 PUSH2 0x1101 JUMP JUMPDEST PUSH1 0x4 DUP5 PUSH1 0x0 DUP2 MLOAD DUP2 LT PUSH2 0x124F JUMPI PUSH2 0x124F PUSH2 0x26CC JUMP JUMPDEST PUSH1 0x20 MUL PUSH1 0x20 ADD ADD MLOAD PUSH2 0x1261 SWAP2 SWAP1 PUSH2 0x26E2 JUMP JUMPDEST PUSH1 0x0 SUB PUSH2 0x127F JUMPI PUSH1 0x1 DUP1 DUP3 ADD DUP1 SLOAD PUSH1 0x5 SWAP3 PUSH1 0xFF NOT SWAP1 SWAP2 AND SWAP1 DUP4 PUSH2 0x1101 JUMP JUMPDEST PUSH1 0x3 DUP5 PUSH1 0x0 DUP2 MLOAD DUP2 LT PUSH2 0x1294 JUMPI PUSH2 0x1294 PUSH2 0x26CC JUMP JUMPDEST PUSH1 0x20 MUL PUSH1 0x20 ADD ADD MLOAD PUSH2 0x12A6 SWAP2 SWAP1 PUSH2 0x26E2 JUMP JUMPDEST PUSH1 0x0 SUB PUSH2 0x12C4 JUMPI PUSH1 0x1 DUP1 DUP3 ADD DUP1 SLOAD PUSH1 0x3 SWAP3 PUSH1 0xFF NOT SWAP1 SWAP2 AND SWAP1 DUP4 PUSH2 0x1101 JUMP JUMPDEST PUSH1 0x2 DUP5 PUSH1 0x0 DUP2 MLOAD DUP2 LT PUSH2 0x12D9 JUMPI PUSH2 0x12D9 PUSH2 0x26CC JUMP JUMPDEST PUSH1 0x20 MUL PUSH1 0x20 ADD ADD MLOAD PUSH2 0x12EB SWAP2 SWAP1 PUSH2 0x26E2 JUMP JUMPDEST PUSH1 0x0 SUB PUSH2 0x1309 JUMPI PUSH1 0x1 DUP1 DUP3 ADD DUP1 SLOAD PUSH1 0x7 SWAP3 PUSH1 0xFF NOT SWAP1 SWAP2 AND SWAP1 DUP4 PUSH2 0x1101 JUMP JUMPDEST PUSH1 0x1 DUP5 PUSH1 0x0 DUP2 MLOAD DUP2 LT PUSH2 0x131E JUMPI PUSH2 0x131E PUSH2 0x26CC JUMP JUMPDEST PUSH1 0x20 MUL PUSH1 0x20 ADD ADD MLOAD PUSH2 0x1330 SWAP2 SWAP1 PUSH2 0x26E2 JUMP JUMPDEST PUSH1 0x0 SUB PUSH2 0x1368 JUMPI PUSH1 0x1 DUP2 DUP2 ADD DUP1 SLOAD PUSH1 0xFF NOT AND PUSH1 0x8 OR SWAP1 SSTORE DUP5 MLOAD DUP6 SWAP2 SWAP1 DUP2 LT PUSH2 0x135A JUMPI PUSH2 0x135A PUSH2 0x26CC JUMP JUMPDEST PUSH1 0x20 SWAP1 DUP2 MUL SWAP2 SWAP1 SWAP2 ADD ADD MLOAD DUP2 SSTORE JUMPDEST PUSH1 0x1 DUP2 ADD SLOAD PUSH1 0x0 SWAP1 PUSH1 0xF SWAP1 PUSH2 0x1390 SWAP1 PUSH1 0xFF AND PUSH1 0x8 DUP2 GT ISZERO PUSH2 0x138B JUMPI PUSH2 0x138B PUSH2 0x2335 JUMP JUMPDEST PUSH2 0x170C JUMP JUMPDEST PUSH1 0x40 MLOAD PUSH1 0x20 ADD PUSH2 0x13A1 SWAP3 SWAP2 SWAP1 PUSH2 0x2537 JUMP JUMPDEST PUSH1 0x40 MLOAD PUSH1 0x20 DUP2 DUP4 SUB SUB DUP2 MSTORE SWAP1 PUSH1 0x40 MSTORE SWAP1 POP PUSH2 0x13BC DUP4 DUP6 PUSH2 0x179F JUMP JUMPDEST DUP1 PUSH1 0x11 PUSH1 0x0 PUSH2 0x13CA PUSH1 0x9 SLOAD SWAP1 JUMP JUMPDEST DUP2 MSTORE PUSH1 0x20 ADD SWAP1 DUP2 MSTORE PUSH1 0x20 ADD PUSH1 0x0 KECCAK256 SWAP1 DUP2 PUSH2 0x13E4 SWAP2 SWAP1 PUSH2 0x260C JUMP JUMPDEST POP PUSH1 0x1 DUP3 ADD SLOAD PUSH1 0x40 MLOAD PUSH32 0x289C71D0D6D2C7AFA2091C18278A04A3B8B3244A68987C28188FD2B3FF65E1BA SWAP2 PUSH2 0x1422 SWAP2 PUSH1 0xFF SWAP1 SWAP2 AND SWAP1 DUP10 SWAP1 DUP8 SWAP1 PUSH2 0x2704 JUMP JUMPDEST PUSH1 0x40 MLOAD DUP1 SWAP2 SUB SWAP1 LOG1 POP POP POP POP POP POP JUMP JUMPDEST PUSH1 0x0 DUP1 PUSH2 0x143E DUP4 PUSH2 0xCC5 JUMP JUMPDEST SWAP1 POP DUP1 PUSH1 0x1 PUSH1 0x1 PUSH1 0xA0 SHL SUB AND DUP5 PUSH1 0x1 PUSH1 0x1 PUSH1 0xA0 SHL SUB AND EQ DUP1 PUSH2 0x1485 JUMPI POP PUSH1 0x1 PUSH1 0x1 PUSH1 0xA0 SHL SUB DUP1 DUP3 AND PUSH1 0x0 SWAP1 DUP2 MSTORE PUSH1 0x5 PUSH1 0x20 SWAP1 DUP2 MSTORE PUSH1 0x40 DUP1 DUP4 KECCAK256 SWAP4 DUP9 AND DUP4 MSTORE SWAP3 SWAP1 MSTORE KECCAK256 SLOAD PUSH1 0xFF AND JUMPDEST DUP1 PUSH2 0x14A9 JUMPI POP DUP4 PUSH1 0x1 PUSH1 0x1 PUSH1 0xA0 SHL SUB AND PUSH2 0x149E DUP5 PUSH2 0x78E JUMP JUMPDEST PUSH1 0x1 PUSH1 0x1 PUSH1 0xA0 SHL SUB AND EQ JUMPDEST SWAP5 SWAP4 POP POP POP POP JUMP JUMPDEST DUP3 PUSH1 0x1 PUSH1 0x1 PUSH1 0xA0 SHL SUB AND PUSH2 0x14C4 DUP3 PUSH2 0xCC5 JUMP JUMPDEST PUSH1 0x1 PUSH1 0x1 PUSH1 0xA0 SHL SUB AND EQ PUSH2 0x14EA JUMPI PUSH1 0x40 MLOAD PUSH3 0x461BCD PUSH1 0xE5 SHL DUP2 MSTORE PUSH1 0x4 ADD PUSH2 0x829 SWAP1 PUSH2 0x2731 JUMP JUMPDEST PUSH1 0x1 PUSH1 0x1 PUSH1 0xA0 SHL SUB DUP3 AND PUSH2 0x154C JUMPI PUSH1 0x40 MLOAD PUSH3 0x461BCD PUSH1 0xE5 SHL DUP2 MSTORE PUSH1 0x20 PUSH1 0x4 DUP3 ADD MSTORE PUSH1 0x24 DUP1 DUP3 ADD MSTORE PUSH32 0x4552433732313A207472616E7366657220746F20746865207A65726F20616464 PUSH1 0x44 DUP3 ADD MSTORE PUSH4 0x72657373 PUSH1 0xE0 SHL PUSH1 0x64 DUP3 ADD MSTORE PUSH1 0x84 ADD PUSH2 0x829 JUMP JUMPDEST DUP3 PUSH1 0x1 PUSH1 0x1 PUSH1 0xA0 SHL SUB AND PUSH2 0x155F DUP3 PUSH2 0xCC5 JUMP JUMPDEST PUSH1 0x1 PUSH1 0x1 PUSH1 0xA0 SHL SUB AND EQ PUSH2 0x1585 JUMPI PUSH1 0x40 MLOAD PUSH3 0x461BCD PUSH1 0xE5 SHL DUP2 MSTORE PUSH1 0x4 ADD PUSH2 0x829 SWAP1 PUSH2 0x2731 JUMP JUMPDEST PUSH1 0x0 DUP2 DUP2 MSTORE PUSH1 0x4 PUSH1 0x20 SWAP1 DUP2 MSTORE PUSH1 0x40 DUP1 DUP4 KECCAK256 DUP1 SLOAD PUSH1 0x1 PUSH1 0x1 PUSH1 0xA0 SHL SUB NOT SWAP1 DUP2 AND SWAP1 SWAP2 SSTORE PUSH1 0x1 PUSH1 0x1 PUSH1 0xA0 SHL SUB DUP8 DUP2 AND DUP1 DUP7 MSTORE PUSH1 0x3 DUP6 MSTORE DUP4 DUP7 KECCAK256 DUP1 SLOAD PUSH1 0x0 NOT ADD SWAP1 SSTORE SWAP1 DUP8 AND DUP1 DUP7 MSTORE DUP4 DUP7 KECCAK256 DUP1 SLOAD PUSH1 0x1 ADD SWAP1 SSTORE DUP7 DUP7 MSTORE PUSH1 0x2 SWAP1 SWAP5 MSTORE DUP3 DUP6 KECCAK256 DUP1 SLOAD SWAP1 SWAP3 AND DUP5 OR SWAP1 SWAP2 SSTORE SWAP1 MLOAD DUP5 SWAP4 PUSH32 0xDDF252AD1BE2C89B69C2B068FC378DAA952BA7F163C4A11628F55A4DF523B3EF SWAP2 LOG4 POP POP POP JUMP JUMPDEST PUSH2 0xCAB DUP2 CALLER PUSH2 0x19DE JUMP JUMPDEST PUSH2 0x1629 DUP3 DUP3 PUSH2 0xE4A JUMP JUMPDEST PUSH2 0xA6C JUMPI PUSH1 0x0 DUP3 DUP2 MSTORE PUSH1 0x6 PUSH1 0x20 SWAP1 DUP2 MSTORE PUSH1 0x40 DUP1 DUP4 KECCAK256 PUSH1 0x1 PUSH1 0x1 PUSH1 0xA0 SHL SUB DUP6 AND DUP5 MSTORE SWAP1 SWAP2 MSTORE SWAP1 KECCAK256 DUP1 SLOAD PUSH1 0xFF NOT AND PUSH1 0x1 OR SWAP1 SSTORE PUSH2 0x1661 CALLER SWAP1 JUMP JUMPDEST PUSH1 0x1 PUSH1 0x1 PUSH1 0xA0 SHL SUB AND DUP2 PUSH1 0x1 PUSH1 0x1 PUSH1 0xA0 SHL SUB AND DUP4 PUSH32 0x2F8788117E7EFF1D82E926EC794901D17C78024A50270940304540A733656F0D PUSH1 0x40 MLOAD PUSH1 0x40 MLOAD DUP1 SWAP2 SUB SWAP1 LOG4 POP POP JUMP JUMPDEST PUSH2 0x16AF DUP3 DUP3 PUSH2 0xE4A JUMP JUMPDEST ISZERO PUSH2 0xA6C JUMPI PUSH1 0x0 DUP3 DUP2 MSTORE PUSH1 0x6 PUSH1 0x20 SWAP1 DUP2 MSTORE PUSH1 0x40 DUP1 DUP4 KECCAK256 PUSH1 0x1 PUSH1 0x1 PUSH1 0xA0 SHL SUB DUP6 AND DUP1 DUP6 MSTORE SWAP3 MSTORE DUP1 DUP4 KECCAK256 DUP1 SLOAD PUSH1 0xFF NOT AND SWAP1 SSTORE MLOAD CALLER SWAP3 DUP6 SWAP2 PUSH32 0xF6391F5C32D9C69D2A47EA670B442974B53935D1EDC7FD64EB21E047A839171B SWAP2 SWAP1 LOG4 POP POP JUMP JUMPDEST PUSH1 0x60 PUSH1 0x0 PUSH2 0x1719 DUP4 PUSH2 0x1A37 JUMP JUMPDEST PUSH1 0x1 ADD SWAP1 POP PUSH1 0x0 DUP2 PUSH8 0xFFFFFFFFFFFFFFFF DUP2 GT ISZERO PUSH2 0x1739 JUMPI PUSH2 0x1739 PUSH2 0x2109 JUMP JUMPDEST PUSH1 0x40 MLOAD SWAP1 DUP1 DUP3 MSTORE DUP1 PUSH1 0x1F ADD PUSH1 0x1F NOT AND PUSH1 0x20 ADD DUP3 ADD PUSH1 0x40 MSTORE DUP1 ISZERO PUSH2 0x1763 JUMPI PUSH1 0x20 DUP3 ADD DUP2 DUP1 CALLDATASIZE DUP4 CALLDATACOPY ADD SWAP1 POP JUMPDEST POP SWAP1 POP DUP2 DUP2 ADD PUSH1 0x20 ADD JUMPDEST PUSH1 0x0 NOT ADD PUSH16 0x181899199A1A9B1B9C1CB0B131B232B3 PUSH1 0x81 SHL PUSH1 0xA DUP7 MOD BYTE DUP2 MSTORE8 PUSH1 0xA DUP6 DIV SWAP5 POP DUP5 PUSH2 0x176D JUMPI POP SWAP4 SWAP3 POP POP POP JUMP JUMPDEST PUSH2 0xA6C DUP3 DUP3 PUSH1 0x40 MLOAD DUP1 PUSH1 0x20 ADD PUSH1 0x40 MSTORE DUP1 PUSH1 0x0 DUP2 MSTORE POP PUSH2 0x1B0F JUMP JUMPDEST PUSH1 0x0 PUSH2 0x17C4 DUP3 PUSH2 0xCC5 JUMP JUMPDEST SWAP1 POP PUSH2 0x17CF DUP3 PUSH2 0xCC5 JUMP JUMPDEST PUSH1 0x0 DUP4 DUP2 MSTORE PUSH1 0x4 PUSH1 0x20 SWAP1 DUP2 MSTORE PUSH1 0x40 DUP1 DUP4 KECCAK256 DUP1 SLOAD PUSH1 0x1 PUSH1 0x1 PUSH1 0xA0 SHL SUB NOT SWAP1 DUP2 AND SWAP1 SWAP2 SSTORE PUSH1 0x1 PUSH1 0x1 PUSH1 0xA0 SHL SUB DUP6 AND DUP1 DUP6 MSTORE PUSH1 0x3 DUP5 MSTORE DUP3 DUP6 KECCAK256 DUP1 SLOAD PUSH1 0x0 NOT ADD SWAP1 SSTORE DUP8 DUP6 MSTORE PUSH1 0x2 SWAP1 SWAP4 MSTORE DUP2 DUP5 KECCAK256 DUP1 SLOAD SWAP1 SWAP2 AND SWAP1 SSTORE MLOAD SWAP3 SWAP4 POP DUP5 SWAP3 PUSH32 0xDDF252AD1BE2C89B69C2B068FC378DAA952BA7F163C4A11628F55A4DF523B3EF SWAP1 DUP4 SWAP1 LOG4 POP POP JUMP JUMPDEST DUP2 PUSH1 0x1 PUSH1 0x1 PUSH1 0xA0 SHL SUB AND DUP4 PUSH1 0x1 PUSH1 0x1 PUSH1 0xA0 SHL SUB AND SUB PUSH2 0x18AF JUMPI PUSH1 0x40 MLOAD PUSH3 0x461BCD PUSH1 0xE5 SHL DUP2 MSTORE PUSH1 0x20 PUSH1 0x4 DUP3 ADD MSTORE PUSH1 0x19 PUSH1 0x24 DUP3 ADD MSTORE PUSH32 0x4552433732313A20617070726F766520746F2063616C6C657200000000000000 PUSH1 0x44 DUP3 ADD MSTORE PUSH1 0x64 ADD PUSH2 0x829 JUMP JUMPDEST PUSH1 0x1 PUSH1 0x1 PUSH1 0xA0 SHL SUB DUP4 DUP2 AND PUSH1 0x0 DUP2 DUP2 MSTORE PUSH1 0x5 PUSH1 0x20 SWAP1 DUP2 MSTORE PUSH1 0x40 DUP1 DUP4 KECCAK256 SWAP5 DUP8 AND DUP1 DUP5 MSTORE SWAP5 DUP3 MSTORE SWAP2 DUP3 SWAP1 KECCAK256 DUP1 SLOAD PUSH1 0xFF NOT AND DUP7 ISZERO ISZERO SWAP1 DUP2 OR SWAP1 SWAP2 SSTORE SWAP2 MLOAD SWAP2 DUP3 MSTORE PUSH32 0x17307EAB39AB6107E8899845AD3D59BD9653F200F220920489CA2B5937696C31 SWAP2 ADD PUSH1 0x40 MLOAD DUP1 SWAP2 SUB SWAP1 LOG3 POP POP POP JUMP JUMPDEST PUSH2 0x1927 DUP5 DUP5 DUP5 PUSH2 0x14B1 JUMP JUMPDEST PUSH2 0x1933 DUP5 DUP5 DUP5 DUP5 PUSH2 0x1B42 JUMP JUMPDEST PUSH2 0xEC1 JUMPI PUSH1 0x40 MLOAD PUSH3 0x461BCD PUSH1 0xE5 SHL DUP2 MSTORE PUSH1 0x4 ADD PUSH2 0x829 SWAP1 PUSH2 0x2776 JUMP JUMPDEST PUSH2 0x1957 PUSH2 0x1C43 JUMP JUMPDEST PUSH1 0x7 DUP1 SLOAD PUSH1 0xFF NOT AND SWAP1 SSTORE PUSH32 0x5DB9EE0A495BF2E6FF9C91A7834C1BA4FDD244A5E8AA4E537BD38AEAE4B073AA CALLER JUMPDEST PUSH1 0x40 MLOAD PUSH1 0x1 PUSH1 0x1 PUSH1 0xA0 SHL SUB SWAP1 SWAP2 AND DUP2 MSTORE PUSH1 0x20 ADD PUSH1 0x40 MLOAD DUP1 SWAP2 SUB SWAP1 LOG1 JUMP JUMPDEST PUSH2 0x19A9 PUSH2 0x1C8E JUMP JUMPDEST PUSH1 0x7 DUP1 SLOAD PUSH1 0xFF NOT AND PUSH1 0x1 OR SWAP1 SSTORE PUSH32 0x62E78CEA01BEE320CD4E420270B5EA74000D11B0C9F74754EBDBFC544B05A258 PUSH2 0x1984 CALLER SWAP1 JUMP JUMPDEST PUSH2 0x19E8 DUP3 DUP3 PUSH2 0xE4A JUMP JUMPDEST PUSH2 0xA6C JUMPI PUSH2 0x19F5 DUP2 PUSH2 0x1CD4 JUMP JUMPDEST PUSH2 0x1A00 DUP4 PUSH1 0x20 PUSH2 0x1CE6 JUMP JUMPDEST PUSH1 0x40 MLOAD PUSH1 0x20 ADD PUSH2 0x1A11 SWAP3 SWAP2 SWAP1 PUSH2 0x27C8 JUMP JUMPDEST PUSH1 0x40 DUP1 MLOAD PUSH1 0x1F NOT DUP2 DUP5 SUB ADD DUP2 MSTORE SWAP1 DUP3 SWAP1 MSTORE PUSH3 0x461BCD PUSH1 0xE5 SHL DUP3 MSTORE PUSH2 0x829 SWAP2 PUSH1 0x4 ADD PUSH2 0x2097 JUMP JUMPDEST PUSH1 0x0 DUP1 PUSH19 0x184F03E93FF9F4DAA797ED6E38ED64BF6A1F01 PUSH1 0x40 SHL DUP4 LT PUSH2 0x1A76 JUMPI PUSH19 0x184F03E93FF9F4DAA797ED6E38ED64BF6A1F01 PUSH1 0x40 SHL DUP4 DIV SWAP3 POP PUSH1 0x40 ADD JUMPDEST PUSH14 0x4EE2D6D415B85ACEF8100000000 DUP4 LT PUSH2 0x1AA2 JUMPI PUSH14 0x4EE2D6D415B85ACEF8100000000 DUP4 DIV SWAP3 POP PUSH1 0x20 ADD JUMPDEST PUSH7 0x2386F26FC10000 DUP4 LT PUSH2 0x1AC0 JUMPI PUSH7 0x2386F26FC10000 DUP4 DIV SWAP3 POP PUSH1 0x10 ADD JUMPDEST PUSH4 0x5F5E100 DUP4 LT PUSH2 0x1AD8 JUMPI PUSH4 0x5F5E100 DUP4 DIV SWAP3 POP PUSH1 0x8 ADD JUMPDEST PUSH2 0x2710 DUP4 LT PUSH2 0x1AEC JUMPI PUSH2 0x2710 DUP4 DIV SWAP3 POP PUSH1 0x4 ADD JUMPDEST PUSH1 0x64 DUP4 LT PUSH2 0x1AFE JUMPI PUSH1 0x64 DUP4 DIV SWAP3 POP PUSH1 0x2 ADD JUMPDEST PUSH1 0xA DUP4 LT PUSH2 0xD25 JUMPI PUSH1 0x1 ADD SWAP3 SWAP2 POP POP JUMP JUMPDEST PUSH2 0x1B19 DUP4 DUP4 PUSH2 0x1E89 JUMP JUMPDEST PUSH2 0x1B26 PUSH1 0x0 DUP5 DUP5 DUP5 PUSH2 0x1B42 JUMP JUMPDEST PUSH2 0x8CA JUMPI PUSH1 0x40 MLOAD PUSH3 0x461BCD PUSH1 0xE5 SHL DUP2 MSTORE PUSH1 0x4 ADD PUSH2 0x829 SWAP1 PUSH2 0x2776 JUMP JUMPDEST PUSH1 0x0 PUSH1 0x1 PUSH1 0x1 PUSH1 0xA0 SHL SUB DUP5 AND EXTCODESIZE ISZERO PUSH2 0x1C38 JUMPI PUSH1 0x40 MLOAD PUSH4 0xA85BD01 PUSH1 0xE1 SHL DUP2 MSTORE PUSH1 0x1 PUSH1 0x1 PUSH1 0xA0 SHL SUB DUP6 AND SWAP1 PUSH4 0x150B7A02 SWAP1 PUSH2 0x1B86 SWAP1 CALLER SWAP1 DUP10 SWAP1 DUP9 SWAP1 DUP9 SWAP1 PUSH1 0x4 ADD PUSH2 0x283D JUMP JUMPDEST PUSH1 0x20 PUSH1 0x40 MLOAD DUP1 DUP4 SUB DUP2 PUSH1 0x0 DUP8 GAS CALL SWAP3 POP POP POP DUP1 ISZERO PUSH2 0x1BC1 JUMPI POP PUSH1 0x40 DUP1 MLOAD PUSH1 0x1F RETURNDATASIZE SWAP1 DUP2 ADD PUSH1 0x1F NOT AND DUP3 ADD SWAP1 SWAP3 MSTORE PUSH2 0x1BBE SWAP2 DUP2 ADD SWAP1 PUSH2 0x287A JUMP JUMPDEST PUSH1 0x1 JUMPDEST PUSH2 0x1C1E JUMPI RETURNDATASIZE DUP1 DUP1 ISZERO PUSH2 0x1BEF JUMPI PUSH1 0x40 MLOAD SWAP2 POP PUSH1 0x1F NOT PUSH1 0x3F RETURNDATASIZE ADD AND DUP3 ADD PUSH1 0x40 MSTORE RETURNDATASIZE DUP3 MSTORE RETURNDATASIZE PUSH1 0x0 PUSH1 0x20 DUP5 ADD RETURNDATACOPY PUSH2 0x1BF4 JUMP JUMPDEST PUSH1 0x60 SWAP2 POP JUMPDEST POP DUP1 MLOAD PUSH1 0x0 SUB PUSH2 0x1C16 JUMPI PUSH1 0x40 MLOAD PUSH3 0x461BCD PUSH1 0xE5 SHL DUP2 MSTORE PUSH1 0x4 ADD PUSH2 0x829 SWAP1 PUSH2 0x2776 JUMP JUMPDEST DUP1 MLOAD DUP2 PUSH1 0x20 ADD REVERT JUMPDEST PUSH1 0x1 PUSH1 0x1 PUSH1 0xE0 SHL SUB NOT AND PUSH4 0xA85BD01 PUSH1 0xE1 SHL EQ SWAP1 POP PUSH2 0x14A9 JUMP JUMPDEST POP PUSH1 0x1 SWAP5 SWAP4 POP POP POP POP JUMP JUMPDEST PUSH1 0x7 SLOAD PUSH1 0xFF AND PUSH2 0x1C8C JUMPI PUSH1 0x40 MLOAD PUSH3 0x461BCD PUSH1 0xE5 SHL DUP2 MSTORE PUSH1 0x20 PUSH1 0x4 DUP3 ADD MSTORE PUSH1 0x14 PUSH1 0x24 DUP3 ADD MSTORE PUSH20 0x14185D5CD8589B194E881B9BDD081C185D5CD959 PUSH1 0x62 SHL PUSH1 0x44 DUP3 ADD MSTORE PUSH1 0x64 ADD PUSH2 0x829 JUMP JUMPDEST JUMP JUMPDEST PUSH1 0x7 SLOAD PUSH1 0xFF AND ISZERO PUSH2 0x1C8C JUMPI PUSH1 0x40 MLOAD PUSH3 0x461BCD PUSH1 0xE5 SHL DUP2 MSTORE PUSH1 0x20 PUSH1 0x4 DUP3 ADD MSTORE PUSH1 0x10 PUSH1 0x24 DUP3 ADD MSTORE PUSH16 0x14185D5CD8589B194E881C185D5CD959 PUSH1 0x82 SHL PUSH1 0x44 DUP3 ADD MSTORE PUSH1 0x64 ADD PUSH2 0x829 JUMP JUMPDEST PUSH1 0x60 PUSH2 0xD25 PUSH1 0x1 PUSH1 0x1 PUSH1 0xA0 SHL SUB DUP4 AND PUSH1 0x14 JUMPDEST PUSH1 0x60 PUSH1 0x0 PUSH2 0x1CF5 DUP4 PUSH1 0x2 PUSH2 0x28AD JUMP JUMPDEST PUSH2 0x1D00 SWAP1 PUSH1 0x2 PUSH2 0x28C4 JUMP JUMPDEST PUSH8 0xFFFFFFFFFFFFFFFF DUP2 GT ISZERO PUSH2 0x1D18 JUMPI PUSH2 0x1D18 PUSH2 0x2109 JUMP JUMPDEST PUSH1 0x40 MLOAD SWAP1 DUP1 DUP3 MSTORE DUP1 PUSH1 0x1F ADD PUSH1 0x1F NOT AND PUSH1 0x20 ADD DUP3 ADD PUSH1 0x40 MSTORE DUP1 ISZERO PUSH2 0x1D42 JUMPI PUSH1 0x20 DUP3 ADD DUP2 DUP1 CALLDATASIZE DUP4 CALLDATACOPY ADD SWAP1 POP JUMPDEST POP SWAP1 POP PUSH1 0x3 PUSH1 0xFC SHL DUP2 PUSH1 0x0 DUP2 MLOAD DUP2 LT PUSH2 0x1D5D JUMPI PUSH2 0x1D5D PUSH2 0x26CC JUMP JUMPDEST PUSH1 0x20 ADD ADD SWAP1 PUSH1 0x1 PUSH1 0x1 PUSH1 0xF8 SHL SUB NOT AND SWAP1 DUP2 PUSH1 0x0 BYTE SWAP1 MSTORE8 POP PUSH1 0xF PUSH1 0xFB SHL DUP2 PUSH1 0x1 DUP2 MLOAD DUP2 LT PUSH2 0x1D8C JUMPI PUSH2 0x1D8C PUSH2 0x26CC JUMP JUMPDEST PUSH1 0x20 ADD ADD SWAP1 PUSH1 0x1 PUSH1 0x1 PUSH1 0xF8 SHL SUB NOT AND SWAP1 DUP2 PUSH1 0x0 BYTE SWAP1 MSTORE8 POP PUSH1 0x0 PUSH2 0x1DB0 DUP5 PUSH1 0x2 PUSH2 0x28AD JUMP JUMPDEST PUSH2 0x1DBB SWAP1 PUSH1 0x1 PUSH2 0x28C4 JUMP JUMPDEST SWAP1 POP JUMPDEST PUSH1 0x1 DUP2 GT ISZERO PUSH2 0x1E33 JUMPI PUSH16 0x181899199A1A9B1B9C1CB0B131B232B3 PUSH1 0x81 SHL DUP6 PUSH1 0xF AND PUSH1 0x10 DUP2 LT PUSH2 0x1DEF JUMPI PUSH2 0x1DEF PUSH2 0x26CC JUMP JUMPDEST BYTE PUSH1 0xF8 SHL DUP3 DUP3 DUP2 MLOAD DUP2 LT PUSH2 0x1E05 JUMPI PUSH2 0x1E05 PUSH2 0x26CC JUMP JUMPDEST PUSH1 0x20 ADD ADD SWAP1 PUSH1 0x1 PUSH1 0x1 PUSH1 0xF8 SHL SUB NOT AND SWAP1 DUP2 PUSH1 0x0 BYTE SWAP1 MSTORE8 POP PUSH1 0x4 SWAP5 SWAP1 SWAP5 SHR SWAP4 PUSH2 0x1E2C DUP2 PUSH2 0x28D7 JUMP JUMPDEST SWAP1 POP PUSH2 0x1DBE JUMP JUMPDEST POP DUP4 ISZERO PUSH2 0x1E82 JUMPI PUSH1 0x40 MLOAD PUSH3 0x461BCD PUSH1 0xE5 SHL DUP2 MSTORE PUSH1 0x20 PUSH1 0x4 DUP3 ADD DUP2 SWAP1 MSTORE PUSH1 0x24 DUP3 ADD MSTORE PUSH32 0x537472696E67733A20686578206C656E67746820696E73756666696369656E74 PUSH1 0x44 DUP3 ADD MSTORE PUSH1 0x64 ADD PUSH2 0x829 JUMP JUMPDEST SWAP4 SWAP3 POP POP POP JUMP JUMPDEST PUSH1 0x1 PUSH1 0x1 PUSH1 0xA0 SHL SUB DUP3 AND PUSH2 0x1EDF JUMPI PUSH1 0x40 MLOAD PUSH3 0x461BCD PUSH1 0xE5 SHL DUP2 MSTORE PUSH1 0x20 PUSH1 0x4 DUP3 ADD DUP2 SWAP1 MSTORE PUSH1 0x24 DUP3 ADD MSTORE PUSH32 0x4552433732313A206D696E7420746F20746865207A65726F2061646472657373 PUSH1 0x44 DUP3 ADD MSTORE PUSH1 0x64 ADD PUSH2 0x829 JUMP JUMPDEST PUSH1 0x0 DUP2 DUP2 MSTORE PUSH1 0x2 PUSH1 0x20 MSTORE PUSH1 0x40 SWAP1 KECCAK256 SLOAD PUSH1 0x1 PUSH1 0x1 PUSH1 0xA0 SHL SUB AND ISZERO PUSH2 0x1F44 JUMPI PUSH1 0x40 MLOAD PUSH3 0x461BCD PUSH1 0xE5 SHL DUP2 MSTORE PUSH1 0x20 PUSH1 0x4 DUP3 ADD MSTORE PUSH1 0x1C PUSH1 0x24 DUP3 ADD MSTORE PUSH32 0x4552433732313A20746F6B656E20616C7265616479206D696E74656400000000 PUSH1 0x44 DUP3 ADD MSTORE PUSH1 0x64 ADD PUSH2 0x829 JUMP JUMPDEST PUSH1 0x0 DUP2 DUP2 MSTORE PUSH1 0x2 PUSH1 0x20 MSTORE PUSH1 0x40 SWAP1 KECCAK256 SLOAD PUSH1 0x1 PUSH1 0x1 PUSH1 0xA0 SHL SUB AND ISZERO PUSH2 0x1FA9 JUMPI PUSH1 0x40 MLOAD PUSH3 0x461BCD PUSH1 0xE5 SHL DUP2 MSTORE PUSH1 0x20 PUSH1 0x4 DUP3 ADD MSTORE PUSH1 0x1C PUSH1 0x24 DUP3 ADD MSTORE PUSH32 0x4552433732313A20746F6B656E20616C7265616479206D696E74656400000000 PUSH1 0x44 DUP3 ADD MSTORE PUSH1 0x64 ADD PUSH2 0x829 JUMP JUMPDEST PUSH1 0x1 PUSH1 0x1 PUSH1 0xA0 SHL SUB DUP3 AND PUSH1 0x0 DUP2 DUP2 MSTORE PUSH1 0x3 PUSH1 0x20 SWAP1 DUP2 MSTORE PUSH1 0x40 DUP1 DUP4 KECCAK256 DUP1 SLOAD PUSH1 0x1 ADD SWAP1 SSTORE DUP5 DUP4 MSTORE PUSH1 0x2 SWAP1 SWAP2 MSTORE DUP1 DUP3 KECCAK256 DUP1 SLOAD PUSH1 0x1 PUSH1 0x1 PUSH1 0xA0 SHL SUB NOT AND DUP5 OR SWAP1 SSTORE MLOAD DUP4 SWAP3 SWAP2 SWAP1 PUSH32 0xDDF252AD1BE2C89B69C2B068FC378DAA952BA7F163C4A11628F55A4DF523B3EF SWAP1 DUP3 SWAP1 LOG4 POP POP JUMP JUMPDEST PUSH1 0x1 PUSH1 0x1 PUSH1 0xE0 SHL SUB NOT DUP2 AND DUP2 EQ PUSH2 0xCAB JUMPI PUSH1 0x0 DUP1 REVERT JUMPDEST PUSH1 0x0 PUSH1 0x20 DUP3 DUP5 SUB SLT ISZERO PUSH2 0x203C JUMPI PUSH1 0x0 DUP1 REVERT JUMPDEST DUP2 CALLDATALOAD PUSH2 0x1E82 DUP2 PUSH2 0x2014 JUMP JUMPDEST PUSH1 0x0 JUMPDEST DUP4 DUP2 LT ISZERO PUSH2 0x2062 JUMPI DUP2 DUP2 ADD MLOAD DUP4 DUP3 ADD MSTORE PUSH1 0x20 ADD PUSH2 0x204A JUMP JUMPDEST POP POP PUSH1 0x0 SWAP2 ADD MSTORE JUMP JUMPDEST PUSH1 0x0 DUP2 MLOAD DUP1 DUP5 MSTORE PUSH2 0x2083 DUP2 PUSH1 0x20 DUP7 ADD PUSH1 0x20 DUP7 ADD PUSH2 0x2047 JUMP JUMPDEST PUSH1 0x1F ADD PUSH1 0x1F NOT AND SWAP3 SWAP1 SWAP3 ADD PUSH1 0x20 ADD SWAP3 SWAP2 POP POP JUMP JUMPDEST PUSH1 0x20 DUP2 MSTORE PUSH1 0x0 PUSH2 0x1E82 PUSH1 0x20 DUP4 ADD DUP5 PUSH2 0x206B JUMP JUMPDEST PUSH1 0x0 PUSH1 0x20 DUP3 DUP5 SUB SLT ISZERO PUSH2 0x20BC JUMPI PUSH1 0x0 DUP1 REVERT JUMPDEST POP CALLDATALOAD SWAP2 SWAP1 POP JUMP JUMPDEST DUP1 CALLDATALOAD PUSH1 0x1 PUSH1 0x1 PUSH1 0xA0 SHL SUB DUP2 AND DUP2 EQ PUSH2 0x20DA JUMPI PUSH1 0x0 DUP1 REVERT JUMPDEST SWAP2 SWAP1 POP JUMP JUMPDEST PUSH1 0x0 DUP1 PUSH1 0x40 DUP4 DUP6 SUB SLT ISZERO PUSH2 0x20F2 JUMPI PUSH1 0x0 DUP1 REVERT JUMPDEST PUSH2 0x20FB DUP4 PUSH2 0x20C3 JUMP JUMPDEST SWAP5 PUSH1 0x20 SWAP4 SWAP1 SWAP4 ADD CALLDATALOAD SWAP4 POP POP POP JUMP JUMPDEST PUSH4 0x4E487B71 PUSH1 0xE0 SHL PUSH1 0x0 MSTORE PUSH1 0x41 PUSH1 0x4 MSTORE PUSH1 0x24 PUSH1 0x0 REVERT JUMPDEST PUSH1 0x40 MLOAD PUSH1 0x1F DUP3 ADD PUSH1 0x1F NOT AND DUP2 ADD PUSH8 0xFFFFFFFFFFFFFFFF DUP2 GT DUP3 DUP3 LT OR ISZERO PUSH2 0x2148 JUMPI PUSH2 0x2148 PUSH2 0x2109 JUMP JUMPDEST PUSH1 0x40 MSTORE SWAP2 SWAP1 POP JUMP JUMPDEST PUSH1 0x0 DUP1 PUSH1 0x40 DUP4 DUP6 SUB SLT ISZERO PUSH2 0x2163 JUMPI PUSH1 0x0 DUP1 REVERT JUMPDEST DUP3 CALLDATALOAD SWAP2 POP PUSH1 0x20 DUP1 DUP5 ADD CALLDATALOAD PUSH8 0xFFFFFFFFFFFFFFFF DUP1 DUP3 GT ISZERO PUSH2 0x2183 JUMPI PUSH1 0x0 DUP1 REVERT JUMPDEST DUP2 DUP7 ADD SWAP2 POP DUP7 PUSH1 0x1F DUP4 ADD SLT PUSH2 0x2197 JUMPI PUSH1 0x0 DUP1 REVERT JUMPDEST DUP2 CALLDATALOAD DUP2 DUP2 GT ISZERO PUSH2 0x21A9 JUMPI PUSH2 0x21A9 PUSH2 0x2109 JUMP JUMPDEST DUP1 PUSH1 0x5 SHL SWAP2 POP PUSH2 0x21BA DUP5 DUP4 ADD PUSH2 0x211F JUMP JUMPDEST DUP2 DUP2 MSTORE SWAP2 DUP4 ADD DUP5 ADD SWAP2 DUP5 DUP2 ADD SWAP1 DUP10 DUP5 GT ISZERO PUSH2 0x21D4 JUMPI PUSH1 0x0 DUP1 REVERT JUMPDEST SWAP4 DUP6 ADD SWAP4 JUMPDEST DUP4 DUP6 LT ISZERO PUSH2 0x21F2 JUMPI DUP5 CALLDATALOAD DUP3 MSTORE SWAP4 DUP6 ADD SWAP4 SWAP1 DUP6 ADD SWAP1 PUSH2 0x21D9 JUMP JUMPDEST DUP1 SWAP7 POP POP POP POP POP POP POP SWAP3 POP SWAP3 SWAP1 POP JUMP JUMPDEST PUSH1 0x0 DUP1 PUSH1 0x0 PUSH1 0x60 DUP5 DUP7 SUB SLT ISZERO PUSH2 0x2217 JUMPI PUSH1 0x0 DUP1 REVERT JUMPDEST PUSH2 0x2220 DUP5 PUSH2 0x20C3 JUMP JUMPDEST SWAP3 POP PUSH2 0x222E PUSH1 0x20 DUP6 ADD PUSH2 0x20C3 JUMP JUMPDEST SWAP2 POP PUSH1 0x40 DUP5 ADD CALLDATALOAD SWAP1 POP SWAP3 POP SWAP3 POP SWAP3 JUMP JUMPDEST PUSH1 0x0 PUSH1 0x20 DUP3 DUP5 SUB SLT ISZERO PUSH2 0x2250 JUMPI PUSH1 0x0 DUP1 REVERT JUMPDEST DUP2 CALLDATALOAD PUSH8 0xFFFFFFFFFFFFFFFF DUP2 AND DUP2 EQ PUSH2 0x1E82 JUMPI PUSH1 0x0 DUP1 REVERT JUMPDEST PUSH1 0x0 DUP1 PUSH1 0x40 DUP4 DUP6 SUB SLT ISZERO PUSH2 0x227B JUMPI PUSH1 0x0 DUP1 REVERT JUMPDEST DUP3 CALLDATALOAD SWAP2 POP PUSH2 0x228B PUSH1 0x20 DUP5 ADD PUSH2 0x20C3 JUMP JUMPDEST SWAP1 POP SWAP3 POP SWAP3 SWAP1 POP JUMP JUMPDEST PUSH1 0x0 PUSH8 0xFFFFFFFFFFFFFFFF DUP4 GT ISZERO PUSH2 0x22AE JUMPI PUSH2 0x22AE PUSH2 0x2109 JUMP JUMPDEST PUSH2 0x22C1 PUSH1 0x1F DUP5 ADD PUSH1 0x1F NOT AND PUSH1 0x20 ADD PUSH2 0x211F JUMP JUMPDEST SWAP1 POP DUP3 DUP2 MSTORE DUP4 DUP4 DUP4 ADD GT ISZERO PUSH2 0x22D5 JUMPI PUSH1 0x0 DUP1 REVERT JUMPDEST DUP3 DUP3 PUSH1 0x20 DUP4 ADD CALLDATACOPY PUSH1 0x0 PUSH1 0x20 DUP5 DUP4 ADD ADD MSTORE SWAP4 SWAP3 POP POP POP JUMP JUMPDEST PUSH1 0x0 PUSH1 0x20 DUP3 DUP5 SUB SLT ISZERO PUSH2 0x22FE JUMPI PUSH1 0x0 DUP1 REVERT JUMPDEST DUP2 CALLDATALOAD PUSH8 0xFFFFFFFFFFFFFFFF DUP2 GT ISZERO PUSH2 0x2315 JUMPI PUSH1 0x0 DUP1 REVERT JUMPDEST DUP3 ADD PUSH1 0x1F DUP2 ADD DUP5 SGT PUSH2 0x2326 JUMPI PUSH1 0x0 DUP1 REVERT JUMPDEST PUSH2 0x14A9 DUP5 DUP3 CALLDATALOAD PUSH1 0x20 DUP5 ADD PUSH2 0x2294 JUMP JUMPDEST PUSH4 0x4E487B71 PUSH1 0xE0 SHL PUSH1 0x0 MSTORE PUSH1 0x21 PUSH1 0x4 MSTORE PUSH1 0x24 PUSH1 0x0 REVERT JUMPDEST PUSH1 0x9 DUP2 LT PUSH2 0x2369 JUMPI PUSH4 0x4E487B71 PUSH1 0xE0 SHL PUSH1 0x0 MSTORE PUSH1 0x21 PUSH1 0x4 MSTORE PUSH1 0x24 PUSH1 0x0 REVERT JUMPDEST SWAP1 MSTORE JUMP JUMPDEST DUP3 DUP2 MSTORE PUSH1 0x40 DUP2 ADD PUSH2 0x1E82 PUSH1 0x20 DUP4 ADD DUP5 PUSH2 0x234B JUMP JUMPDEST PUSH1 0x0 PUSH1 0x20 DUP3 DUP5 SUB SLT ISZERO PUSH2 0x2393 JUMPI PUSH1 0x0 DUP1 REVERT JUMPDEST PUSH2 0x1E82 DUP3 PUSH2 0x20C3 JUMP JUMPDEST DUP1 CALLDATALOAD DUP1 ISZERO ISZERO DUP2 EQ PUSH2 0x20DA JUMPI PUSH1 0x0 DUP1 REVERT JUMPDEST PUSH1 0x0 DUP1 PUSH1 0x40 DUP4 DUP6 SUB SLT ISZERO PUSH2 0x23BF JUMPI PUSH1 0x0 DUP1 REVERT JUMPDEST PUSH2 0x23C8 DUP4 PUSH2 0x20C3 JUMP JUMPDEST SWAP2 POP PUSH2 0x228B PUSH1 0x20 DUP5 ADD PUSH2 0x239C JUMP JUMPDEST PUSH1 0x0 DUP1 PUSH1 0x0 DUP1 PUSH1 0x80 DUP6 DUP8 SUB SLT ISZERO PUSH2 0x23EC JUMPI PUSH1 0x0 DUP1 REVERT JUMPDEST PUSH2 0x23F5 DUP6 PUSH2 0x20C3 JUMP JUMPDEST SWAP4 POP PUSH2 0x2403 PUSH1 0x20 DUP7 ADD PUSH2 0x20C3 JUMP JUMPDEST SWAP3 POP PUSH1 0x40 DUP6 ADD CALLDATALOAD SWAP2 POP PUSH1 0x60 DUP6 ADD CALLDATALOAD PUSH8 0xFFFFFFFFFFFFFFFF DUP2 GT ISZERO PUSH2 0x2426 JUMPI PUSH1 0x0 DUP1 REVERT JUMPDEST DUP6 ADD PUSH1 0x1F DUP2 ADD DUP8 SGT PUSH2 0x2437 JUMPI PUSH1 0x0 DUP1 REVERT JUMPDEST PUSH2 0x2446 DUP8 DUP3 CALLDATALOAD PUSH1 0x20 DUP5 ADD PUSH2 0x2294 JUMP JUMPDEST SWAP2 POP POP SWAP3 SWAP6 SWAP2 SWAP5 POP SWAP3 POP JUMP JUMPDEST PUSH1 0x0 PUSH1 0x20 DUP3 DUP5 SUB SLT ISZERO PUSH2 0x2464 JUMPI PUSH1 0x0 DUP1 REVERT JUMPDEST PUSH2 0x1E82 DUP3 PUSH2 0x239C JUMP JUMPDEST PUSH1 0x0 DUP1 PUSH1 0x40 DUP4 DUP6 SUB SLT ISZERO PUSH2 0x2480 JUMPI PUSH1 0x0 DUP1 REVERT JUMPDEST PUSH2 0x2489 DUP4 PUSH2 0x20C3 JUMP JUMPDEST SWAP2 POP PUSH2 0x228B PUSH1 0x20 DUP5 ADD PUSH2 0x20C3 JUMP JUMPDEST PUSH1 0x1 DUP2 DUP2 SHR SWAP1 DUP3 AND DUP1 PUSH2 0x24AB JUMPI PUSH1 0x7F DUP3 AND SWAP2 POP JUMPDEST PUSH1 0x20 DUP3 LT DUP2 SUB PUSH2 0x24CB JUMPI PUSH4 0x4E487B71 PUSH1 0xE0 SHL PUSH1 0x0 MSTORE PUSH1 0x22 PUSH1 0x4 MSTORE PUSH1 0x24 PUSH1 0x0 REVERT JUMPDEST POP SWAP2 SWAP1 POP JUMP JUMPDEST PUSH1 0x0 PUSH1 0x20 DUP3 DUP5 SUB SLT ISZERO PUSH2 0x24E3 JUMPI PUSH1 0x0 DUP1 REVERT JUMPDEST POP MLOAD SWAP2 SWAP1 POP JUMP JUMPDEST PUSH1 0x20 DUP1 DUP3 MSTORE PUSH1 0x2D SWAP1 DUP3 ADD MSTORE PUSH32 0x4552433732313A2063616C6C6572206973206E6F7420746F6B656E206F776E65 PUSH1 0x40 DUP3 ADD MSTORE PUSH13 0x1C881BDC88185C1C1C9BDD9959 PUSH1 0x9A SHL PUSH1 0x60 DUP3 ADD MSTORE PUSH1 0x80 ADD SWAP1 JUMP JUMPDEST PUSH1 0x0 DUP1 DUP5 SLOAD PUSH2 0x2545 DUP2 PUSH2 0x2497 JUMP JUMPDEST PUSH1 0x1 DUP3 DUP2 AND DUP1 ISZERO PUSH2 0x255D JUMPI PUSH1 0x1 DUP2 EQ PUSH2 0x2572 JUMPI PUSH2 0x25A1 JUMP JUMPDEST PUSH1 0xFF NOT DUP5 AND DUP8 MSTORE DUP3 ISZERO ISZERO DUP4 MUL DUP8 ADD SWAP5 POP PUSH2 0x25A1 JUMP JUMPDEST DUP9 PUSH1 0x0 MSTORE PUSH1 0x20 DUP1 PUSH1 0x0 KECCAK256 PUSH1 0x0 JUMPDEST DUP6 DUP2 LT ISZERO PUSH2 0x2598 JUMPI DUP2 SLOAD DUP11 DUP3 ADD MSTORE SWAP1 DUP5 ADD SWAP1 DUP3 ADD PUSH2 0x257F JUMP JUMPDEST POP POP POP DUP3 DUP8 ADD SWAP5 POP JUMPDEST POP POP POP POP DUP4 MLOAD PUSH2 0x25B5 DUP2 DUP4 PUSH1 0x20 DUP9 ADD PUSH2 0x2047 JUMP JUMPDEST ADD SWAP5 SWAP4 POP POP POP POP JUMP JUMPDEST PUSH1 0x1F DUP3 GT ISZERO PUSH2 0x8CA JUMPI PUSH1 0x0 DUP2 DUP2 MSTORE PUSH1 0x20 DUP2 KECCAK256 PUSH1 0x1F DUP6 ADD PUSH1 0x5 SHR DUP2 ADD PUSH1 0x20 DUP7 LT ISZERO PUSH2 0x25E5 JUMPI POP DUP1 JUMPDEST PUSH1 0x1F DUP6 ADD PUSH1 0x5 SHR DUP3 ADD SWAP2 POP JUMPDEST DUP2 DUP2 LT ISZERO PUSH2 0x2604 JUMPI DUP3 DUP2 SSTORE PUSH1 0x1 ADD PUSH2 0x25F1 JUMP JUMPDEST POP POP POP POP POP POP JUMP JUMPDEST DUP2 MLOAD PUSH8 0xFFFFFFFFFFFFFFFF DUP2 GT ISZERO PUSH2 0x2626 JUMPI PUSH2 0x2626 PUSH2 0x2109 JUMP JUMPDEST PUSH2 0x263A DUP2 PUSH2 0x2634 DUP5 SLOAD PUSH2 0x2497 JUMP JUMPDEST DUP5 PUSH2 0x25BE JUMP JUMPDEST PUSH1 0x20 DUP1 PUSH1 0x1F DUP4 GT PUSH1 0x1 DUP2 EQ PUSH2 0x266F JUMPI PUSH1 0x0 DUP5 ISZERO PUSH2 0x2657 JUMPI POP DUP6 DUP4 ADD MLOAD JUMPDEST PUSH1 0x0 NOT PUSH1 0x3 DUP7 SWAP1 SHL SHR NOT AND PUSH1 0x1 DUP6 SWAP1 SHL OR DUP6 SSTORE PUSH2 0x2604 JUMP JUMPDEST PUSH1 0x0 DUP6 DUP2 MSTORE PUSH1 0x20 DUP2 KECCAK256 PUSH1 0x1F NOT DUP7 AND SWAP2 JUMPDEST DUP3 DUP2 LT ISZERO PUSH2 0x269E JUMPI DUP9 DUP7 ADD MLOAD DUP3 SSTORE SWAP5 DUP5 ADD SWAP5 PUSH1 0x1 SWAP1 SWAP2 ADD SWAP1 DUP5 ADD PUSH2 0x267F JUMP JUMPDEST POP DUP6 DUP3 LT ISZERO PUSH2 0x26BC JUMPI DUP8 DUP6 ADD MLOAD PUSH1 0x0 NOT PUSH1 0x3 DUP9 SWAP1 SHL PUSH1 0xF8 AND SHR NOT AND DUP2 SSTORE JUMPDEST POP POP POP POP POP PUSH1 0x1 SWAP1 DUP2 SHL ADD SWAP1 SSTORE POP JUMP JUMPDEST PUSH4 0x4E487B71 PUSH1 0xE0 SHL PUSH1 0x0 MSTORE PUSH1 0x32 PUSH1 0x4 MSTORE PUSH1 0x24 PUSH1 0x0 REVERT JUMPDEST PUSH1 0x0 DUP3 PUSH2 0x26FF JUMPI PUSH4 0x4E487B71 PUSH1 0xE0 SHL PUSH1 0x0 MSTORE PUSH1 0x12 PUSH1 0x4 MSTORE PUSH1 0x24 PUSH1 0x0 REVERT JUMPDEST POP MOD SWAP1 JUMP JUMPDEST PUSH1 0x60 DUP2 ADD PUSH2 0x2712 DUP3 DUP7 PUSH2 0x234B JUMP JUMPDEST PUSH1 0x20 DUP3 ADD SWAP4 SWAP1 SWAP4 MSTORE PUSH1 0x1 PUSH1 0x1 PUSH1 0xA0 SHL SUB SWAP2 SWAP1 SWAP2 AND PUSH1 0x40 SWAP1 SWAP2 ADD MSTORE SWAP2 SWAP1 POP JUMP JUMPDEST PUSH1 0x20 DUP1 DUP3 MSTORE PUSH1 0x25 SWAP1 DUP3 ADD MSTORE PUSH32 0x4552433732313A207472616E736665722066726F6D20696E636F727265637420 PUSH1 0x40 DUP3 ADD MSTORE PUSH5 0x37BBB732B9 PUSH1 0xD9 SHL PUSH1 0x60 DUP3 ADD MSTORE PUSH1 0x80 ADD SWAP1 JUMP JUMPDEST PUSH1 0x20 DUP1 DUP3 MSTORE PUSH1 0x32 SWAP1 DUP3 ADD MSTORE PUSH32 0x4552433732313A207472616E7366657220746F206E6F6E204552433732315265 PUSH1 0x40 DUP3 ADD MSTORE PUSH18 0x31B2B4BB32B91034B6B83632B6B2B73A32B9 PUSH1 0x71 SHL PUSH1 0x60 DUP3 ADD MSTORE PUSH1 0x80 ADD SWAP1 JUMP JUMPDEST PUSH32 0x416363657373436F6E74726F6C3A206163636F756E7420000000000000000000 DUP2 MSTORE PUSH1 0x0 DUP4 MLOAD PUSH2 0x2800 DUP2 PUSH1 0x17 DUP6 ADD PUSH1 0x20 DUP9 ADD PUSH2 0x2047 JUMP JUMPDEST PUSH17 0x1034B99036B4B9B9B4B733903937B6329 PUSH1 0x7D SHL PUSH1 0x17 SWAP2 DUP5 ADD SWAP2 DUP3 ADD MSTORE DUP4 MLOAD PUSH2 0x2831 DUP2 PUSH1 0x28 DUP5 ADD PUSH1 0x20 DUP9 ADD PUSH2 0x2047 JUMP JUMPDEST ADD PUSH1 0x28 ADD SWAP5 SWAP4 POP POP POP POP JUMP JUMPDEST PUSH1 0x1 PUSH1 0x1 PUSH1 0xA0 SHL SUB DUP6 DUP2 AND DUP3 MSTORE DUP5 AND PUSH1 0x20 DUP3 ADD MSTORE PUSH1 0x40 DUP2 ADD DUP4 SWAP1 MSTORE PUSH1 0x80 PUSH1 0x60 DUP3 ADD DUP2 SWAP1 MSTORE PUSH1 0x0 SWAP1 PUSH2 0x2870 SWAP1 DUP4 ADD DUP5 PUSH2 0x206B JUMP JUMPDEST SWAP7 SWAP6 POP POP POP POP POP POP JUMP JUMPDEST PUSH1 0x0 PUSH1 0x20 DUP3 DUP5 SUB SLT ISZERO PUSH2 0x288C JUMPI PUSH1 0x0 DUP1 REVERT JUMPDEST DUP2 MLOAD PUSH2 0x1E82 DUP2 PUSH2 0x2014 JUMP JUMPDEST PUSH4 0x4E487B71 PUSH1 0xE0 SHL PUSH1 0x0 MSTORE PUSH1 0x11 PUSH1 0x4 MSTORE PUSH1 0x24 PUSH1 0x0 REVERT JUMPDEST DUP1 DUP3 MUL DUP2 ISZERO DUP3 DUP3 DIV DUP5 EQ OR PUSH2 0xD25 JUMPI PUSH2 0xD25 PUSH2 0x2897 JUMP JUMPDEST DUP1 DUP3 ADD DUP1 DUP3 GT ISZERO PUSH2 0xD25 JUMPI PUSH2 0xD25 PUSH2 0x2897 JUMP JUMPDEST PUSH1 0x0 DUP2 PUSH2 0x28E6 JUMPI PUSH2 0x28E6 PUSH2 0x2897 JUMP JUMPDEST POP PUSH1 0x0 NOT ADD SWAP1 JUMP INVALID LOG2 PUSH5 0x6970667358 0x22 SLT KECCAK256 0xE1 0xCA SWAP10 DUP4 NUMBER 0xC7 SMOD 0xD4 PUSH12 0x25F73C5108CC6BBB163361D8 SAR LOG1 DUP2 0xD7 0xA5 MSTORE8 0xC7 0xE3 0x2D 0xBC SHL PUSH5 0x736F6C6343 STOP ADDMOD SGT STOP CALLER "},"methodIdentifiers":{"COORDINATOR()":"3b2bcbf1","DEFAULT_ADMIN_ROLE()":"a217fddf","_globalCounter()":"d64a0d0c","approve(address,uint256)":"095ea7b3","balanceOf(address)":"70a08231","baseURI()":"6c0360eb","burn(uint256)":"42966c68","emergencyWithdraw(address)":"6ff1c9bc","fishByIds(uint256)":"6844b827","getApproved(uint256)":"081812fc","getRoleAdmin(bytes32)":"248a9ca3","grantRole(bytes32,address)":"2f2ff15d","hasRole(bytes32,address)":"91d14854","isApprovedForAll(address,address)":"e985e9c5","mint(address,uint256)":"40c10f19","name()":"06fdde03","newKeyHash(bytes32)":"2750cfdc","ownerOf(uint256)":"6352211e","paused()":"5c975abb","rawFulfillRandomWords(uint256,uint256[])":"1fe543e3","renounceRole(bytes32,address)":"36568abe","requestIdToSender(uint256)":"8e2de4d3","requestIdToTokenId(uint256)":"0750b163","revokeRole(bytes32,address)":"d547741f","safeTransferFrom(address,address,uint256)":"42842e0e","safeTransferFrom(address,address,uint256,bytes)":"b88d4fde","setApprovalForAll(address,bool)":"a22cb465","setBaseURI(string)":"55f804b3","setNewSubcription(uint64)":"254bb742","setPause(bool)":"bedb86fb","supportsInterface(bytes4)":"01ffc9a7","symbol()":"95d89b41","throwABait()":"0a564c08","tokenCounter()":"d082e381","tokenURI(uint256)":"c87b56dd","transferFrom(address,address,uint256)":"23b872dd"}},"storageLayout":{"storage":[{"astId":730,"contract":"contracts/FishNFT.sol:FishNFT","label":"_name","offset":0,"slot":"0","type":"t_string_storage"},{"astId":732,"contract":"contracts/FishNFT.sol:FishNFT","label":"_symbol","offset":0,"slot":"1","type":"t_string_storage"},{"astId":736,"contract":"contracts/FishNFT.sol:FishNFT","label":"_owners","offset":0,"slot":"2","type":"t_mapping(t_uint256,t_address)"},{"astId":740,"contract":"contracts/FishNFT.sol:FishNFT","label":"_balances","offset":0,"slot":"3","type":"t_mapping(t_address,t_uint256)"},{"astId":744,"contract":"contracts/FishNFT.sol:FishNFT","label":"_tokenApprovals","offset":0,"slot":"4","type":"t_mapping(t_uint256,t_address)"},{"astId":750,"contract":"contracts/FishNFT.sol:FishNFT","label":"_operatorApprovals","offset":0,"slot":"5","type":"t_mapping(t_address,t_mapping(t_address,t_bool))"},{"astId":178,"contract":"contracts/FishNFT.sol:FishNFT","label":"_roles","offset":0,"slot":"6","type":"t_mapping(t_bytes32,t_struct(RoleData)173_storage)"},{"astId":560,"contract":"contracts/FishNFT.sol:FishNFT","label":"_paused","offset":0,"slot":"7","type":"t_bool"},{"astId":661,"contract":"contracts/FishNFT.sol:FishNFT","label":"_status","offset":0,"slot":"8","type":"t_uint256"},{"astId":3845,"contract":"contracts/FishNFT.sol:FishNFT","label":"_globalCounter","offset":0,"slot":"9","type":"t_struct(Counter)2305_storage"},{"astId":3863,"contract":"contracts/FishNFT.sol:FishNFT","label":"requestConfirmations","offset":0,"slot":"10","type":"t_uint16"},{"astId":3865,"contract":"contracts/FishNFT.sol:FishNFT","label":"keyHash","offset":0,"slot":"11","type":"t_bytes32"},{"astId":3867,"contract":"contracts/FishNFT.sol:FishNFT","label":"callbackGasLimit","offset":0,"slot":"12","type":"t_uint32"},{"astId":3869,"contract":"contracts/FishNFT.sol:FishNFT","label":"numWords","offset":4,"slot":"12","type":"t_uint32"},{"astId":3871,"contract":"contracts/FishNFT.sol:FishNFT","label":"s_subscriptionId","offset":8,"slot":"12","type":"t_uint64"},{"astId":3873,"contract":"contracts/FishNFT.sol:FishNFT","label":"tokenCounter","offset":0,"slot":"13","type":"t_uint256"},{"astId":3876,"contract":"contracts/FishNFT.sol:FishNFT","label":"COORDINATOR","offset":0,"slot":"14","type":"t_contract(VRFCoordinatorV2Interface)153"},{"astId":3878,"contract":"contracts/FishNFT.sol:FishNFT","label":"baseURI","offset":0,"slot":"15","type":"t_string_storage"},{"astId":3882,"contract":"contracts/FishNFT.sol:FishNFT","label":"requestIdToSender","offset":0,"slot":"16","type":"t_mapping(t_uint256,t_address)"},{"astId":3886,"contract":"contracts/FishNFT.sol:FishNFT","label":"_tokenURIs","offset":0,"slot":"17","type":"t_mapping(t_uint256,t_string_storage)"},{"astId":3891,"contract":"contracts/FishNFT.sol:FishNFT","label":"fishByIds","offset":0,"slot":"18","type":"t_mapping(t_uint256,t_struct(FishInfo)3861_storage)"},{"astId":3895,"contract":"contracts/FishNFT.sol:FishNFT","label":"requestIdToTokenId","offset":0,"slot":"19","type":"t_mapping(t_uint256,t_uint256)"}],"types":{"t_address":{"encoding":"inplace","label":"address","numberOfBytes":"20"},"t_bool":{"encoding":"inplace","label":"bool","numberOfBytes":"1"},"t_bytes32":{"encoding":"inplace","label":"bytes32","numberOfBytes":"32"},"t_contract(VRFCoordinatorV2Interface)153":{"encoding":"inplace","label":"contract VRFCoordinatorV2Interface","numberOfBytes":"20"},"t_enum(FishTypes)3855":{"encoding":"inplace","label":"enum FishNFT.FishTypes","numberOfBytes":"1"},"t_mapping(t_address,t_bool)":{"encoding":"mapping","key":"t_address","label":"mapping(address => bool)","numberOfBytes":"32","value":"t_bool"},"t_mapping(t_address,t_mapping(t_address,t_bool))":{"encoding":"mapping","key":"t_address","label":"mapping(address => mapping(address => bool))","numberOfBytes":"32","value":"t_mapping(t_address,t_bool)"},"t_mapping(t_address,t_uint256)":{"encoding":"mapping","key":"t_address","label":"mapping(address => uint256)","numberOfBytes":"32","value":"t_uint256"},"t_mapping(t_bytes32,t_struct(RoleData)173_storage)":{"encoding":"mapping","key":"t_bytes32","label":"mapping(bytes32 => struct AccessControl.RoleData)","numberOfBytes":"32","value":"t_struct(RoleData)173_storage"},"t_mapping(t_uint256,t_address)":{"encoding":"mapping","key":"t_uint256","label":"mapping(uint256 => address)","numberOfBytes":"32","value":"t_address"},"t_mapping(t_uint256,t_string_storage)":{"encoding":"mapping","key":"t_uint256","label":"mapping(uint256 => string)","numberOfBytes":"32","value":"t_string_storage"},"t_mapping(t_uint256,t_struct(FishInfo)3861_storage)":{"encoding":"mapping","key":"t_uint256","label":"mapping(uint256 => struct FishNFT.FishInfo)","numberOfBytes":"32","value":"t_struct(FishInfo)3861_storage"},"t_mapping(t_uint256,t_uint256)":{"encoding":"mapping","key":"t_uint256","label":"mapping(uint256 => uint256)","numberOfBytes":"32","value":"t_uint256"},"t_string_storage":{"encoding":"bytes","label":"string","numberOfBytes":"32"},"t_struct(Counter)2305_storage":{"encoding":"inplace","label":"struct Counters.Counter","members":[{"astId":2304,"contract":"contracts/FishNFT.sol:FishNFT","label":"_value","offset":0,"slot":"0","type":"t_uint256"}],"numberOfBytes":"32"},"t_struct(FishInfo)3861_storage":{"encoding":"inplace","label":"struct FishNFT.FishInfo","members":[{"astId":3857,"contract":"contracts/FishNFT.sol:FishNFT","label":"weight","offset":0,"slot":"0","type":"t_uint256"},{"astId":3860,"contract":"contracts/FishNFT.sol:FishNFT","label":"typeFish","offset":0,"slot":"1","type":"t_enum(FishTypes)3855"}],"numberOfBytes":"64"},"t_struct(RoleData)173_storage":{"encoding":"inplace","label":"struct AccessControl.RoleData","members":[{"astId":170,"contract":"contracts/FishNFT.sol:FishNFT","label":"members","offset":0,"slot":"0","type":"t_mapping(t_address,t_bool)"},{"astId":172,"contract":"contracts/FishNFT.sol:FishNFT","label":"adminRole","offset":0,"slot":"1","type":"t_bytes32"}],"numberOfBytes":"64"},"t_uint16":{"encoding":"inplace","label":"uint16","numberOfBytes":"2"},"t_uint256":{"encoding":"inplace","label":"uint256","numberOfBytes":"32"},"t_uint32":{"encoding":"inplace","label":"uint32","numberOfBytes":"4"},"t_uint64":{"encoding":"inplace","label":"uint64","numberOfBytes":"8"}}}}}}