{
  "_format": "hh-sol-artifact-1",
  "contractName": "FishNFT",
  "sourceName": "contracts/FishNFT.sol",
  "abi": [
    {
      "inputs": [
        {
          "internalType": "string",
          "name": "name_",
          "type": "string"
        },
        {
          "internalType": "string",
          "name": "symbol_",
          "type": "string"
        },
        {
          "internalType": "string",
          "name": "_baseURII",
          "type": "string"
        },
        {
          "internalType": "uint64",
          "name": "_subscriptionId",
          "type": "uint64"
        },
        {
          "internalType": "address",
          "name": "_VRFCoordinator",
          "type": "address"
        },
        {
          "internalType": "bytes32",
          "name": "_keyhash",
          "type": "bytes32"
        }
      ],
      "stateMutability": "nonpayable",
      "type": "constructor"
    },
    {
      "inputs": [
        {
          "internalType": "address",
          "name": "have",
          "type": "address"
        },
        {
          "internalType": "address",
          "name": "want",
          "type": "address"
        }
      ],
      "name": "OnlyCoordinatorCanFulfill",
      "type": "error"
    },
    {
      "anonymous": false,
      "inputs": [
        {
          "indexed": true,
          "internalType": "address",
          "name": "owner",
          "type": "address"
        },
        {
          "indexed": true,
          "internalType": "address",
          "name": "approved",
          "type": "address"
        },
        {
          "indexed": true,
          "internalType": "uint256",
          "name": "tokenId",
          "type": "uint256"
        }
      ],
      "name": "Approval",
      "type": "event"
    },
    {
      "anonymous": false,
      "inputs": [
        {
          "indexed": true,
          "internalType": "address",
          "name": "owner",
          "type": "address"
        },
        {
          "indexed": true,
          "internalType": "address",
          "name": "operator",
          "type": "address"
        },
        {
          "indexed": false,
          "internalType": "bool",
          "name": "approved",
          "type": "bool"
        }
      ],
      "name": "ApprovalForAll",
      "type": "event"
    },
    {
      "anonymous": false,
      "inputs": [
        {
          "indexed": false,
          "internalType": "enum FishNFT.FishTypes",
          "name": "fishType",
          "type": "uint8"
        },
        {
          "indexed": false,
          "internalType": "uint256",
          "name": "_tokenId",
          "type": "uint256"
        },
        {
          "indexed": false,
          "internalType": "address",
          "name": "_to",
          "type": "address"
        }
      ],
      "name": "Fished",
      "type": "event"
    },
    {
      "anonymous": false,
      "inputs": [
        {
          "indexed": false,
          "internalType": "address",
          "name": "account",
          "type": "address"
        }
      ],
      "name": "Paused",
      "type": "event"
    },
    {
      "anonymous": false,
      "inputs": [
        {
          "indexed": true,
          "internalType": "bytes32",
          "name": "role",
          "type": "bytes32"
        },
        {
          "indexed": true,
          "internalType": "bytes32",
          "name": "previousAdminRole",
          "type": "bytes32"
        },
        {
          "indexed": true,
          "internalType": "bytes32",
          "name": "newAdminRole",
          "type": "bytes32"
        }
      ],
      "name": "RoleAdminChanged",
      "type": "event"
    },
    {
      "anonymous": false,
      "inputs": [
        {
          "indexed": true,
          "internalType": "bytes32",
          "name": "role",
          "type": "bytes32"
        },
        {
          "indexed": true,
          "internalType": "address",
          "name": "account",
          "type": "address"
        },
        {
          "indexed": true,
          "internalType": "address",
          "name": "sender",
          "type": "address"
        }
      ],
      "name": "RoleGranted",
      "type": "event"
    },
    {
      "anonymous": false,
      "inputs": [
        {
          "indexed": true,
          "internalType": "bytes32",
          "name": "role",
          "type": "bytes32"
        },
        {
          "indexed": true,
          "internalType": "address",
          "name": "account",
          "type": "address"
        },
        {
          "indexed": true,
          "internalType": "address",
          "name": "sender",
          "type": "address"
        }
      ],
      "name": "RoleRevoked",
      "type": "event"
    },
    {
      "anonymous": false,
      "inputs": [
        {
          "indexed": true,
          "internalType": "address",
          "name": "from",
          "type": "address"
        },
        {
          "indexed": true,
          "internalType": "address",
          "name": "to",
          "type": "address"
        },
        {
          "indexed": true,
          "internalType": "uint256",
          "name": "tokenId",
          "type": "uint256"
        }
      ],
      "name": "Transfer",
      "type": "event"
    },
    {
      "anonymous": false,
      "inputs": [
        {
          "indexed": false,
          "internalType": "address",
          "name": "account",
          "type": "address"
        }
      ],
      "name": "Unpaused",
      "type": "event"
    },
    {
      "anonymous": false,
      "inputs": [
        {
          "indexed": false,
          "internalType": "uint256",
          "name": "requestID",
          "type": "uint256"
        }
      ],
      "name": "throwBait",
      "type": "event"
    },
    {
      "stateMutability": "payable",
      "type": "fallback"
    },
    {
      "inputs": [],
      "name": "COORDINATOR",
      "outputs": [
        {
          "internalType": "contract VRFCoordinatorV2Interface",
          "name": "",
          "type": "address"
        }
      ],
      "stateMutability": "view",
      "type": "function"
    },
    {
      "inputs": [],
      "name": "DEFAULT_ADMIN_ROLE",
      "outputs": [
        {
          "internalType": "bytes32",
          "name": "",
          "type": "bytes32"
        }
      ],
      "stateMutability": "view",
      "type": "function"
    },
    {
      "inputs": [],
      "name": "_globalCounter",
      "outputs": [
        {
          "internalType": "uint256",
          "name": "_value",
          "type": "uint256"
        }
      ],
      "stateMutability": "view",
      "type": "function"
    },
    {
      "inputs": [
        {
          "internalType": "address",
          "name": "to",
          "type": "address"
        },
        {
          "internalType": "uint256",
          "name": "tokenId",
          "type": "uint256"
        }
      ],
      "name": "approve",
      "outputs": [],
      "stateMutability": "nonpayable",
      "type": "function"
    },
    {
      "inputs": [
        {
          "internalType": "address",
          "name": "owner",
          "type": "address"
        }
      ],
      "name": "balanceOf",
      "outputs": [
        {
          "internalType": "uint256",
          "name": "",
          "type": "uint256"
        }
      ],
      "stateMutability": "view",
      "type": "function"
    },
    {
      "inputs": [],
      "name": "baseURI",
      "outputs": [
        {
          "internalType": "string",
          "name": "",
          "type": "string"
        }
      ],
      "stateMutability": "view",
      "type": "function"
    },
    {
      "inputs": [
        {
          "internalType": "uint256",
          "name": "tokenId",
          "type": "uint256"
        }
      ],
      "name": "burn",
      "outputs": [],
      "stateMutability": "nonpayable",
      "type": "function"
    },
    {
      "inputs": [
        {
          "internalType": "uint256",
          "name": "",
          "type": "uint256"
        }
      ],
      "name": "fishByIds",
      "outputs": [
        {
          "internalType": "uint256",
          "name": "weight",
          "type": "uint256"
        },
        {
          "internalType": "enum FishNFT.FishTypes",
          "name": "typeFish",
          "type": "uint8"
        }
      ],
      "stateMutability": "view",
      "type": "function"
    },
    {
      "inputs": [
        {
          "internalType": "uint256",
          "name": "tokenId",
          "type": "uint256"
        }
      ],
      "name": "getApproved",
      "outputs": [
        {
          "internalType": "address",
          "name": "",
          "type": "address"
        }
      ],
      "stateMutability": "view",
      "type": "function"
    },
    {
      "inputs": [
        {
          "internalType": "bytes32",
          "name": "role",
          "type": "bytes32"
        }
      ],
      "name": "getRoleAdmin",
      "outputs": [
        {
          "internalType": "bytes32",
          "name": "",
          "type": "bytes32"
        }
      ],
      "stateMutability": "view",
      "type": "function"
    },
    {
      "inputs": [
        {
          "internalType": "bytes32",
          "name": "role",
          "type": "bytes32"
        },
        {
          "internalType": "address",
          "name": "account",
          "type": "address"
        }
      ],
      "name": "grantRole",
      "outputs": [],
      "stateMutability": "nonpayable",
      "type": "function"
    },
    {
      "inputs": [
        {
          "internalType": "bytes32",
          "name": "role",
          "type": "bytes32"
        },
        {
          "internalType": "address",
          "name": "account",
          "type": "address"
        }
      ],
      "name": "hasRole",
      "outputs": [
        {
          "internalType": "bool",
          "name": "",
          "type": "bool"
        }
      ],
      "stateMutability": "view",
      "type": "function"
    },
    {
      "inputs": [
        {
          "internalType": "address",
          "name": "owner",
          "type": "address"
        },
        {
          "internalType": "address",
          "name": "operator",
          "type": "address"
        }
      ],
      "name": "isApprovedForAll",
      "outputs": [
        {
          "internalType": "bool",
          "name": "",
          "type": "bool"
        }
      ],
      "stateMutability": "view",
      "type": "function"
    },
    {
      "inputs": [],
      "name": "name",
      "outputs": [
        {
          "internalType": "string",
          "name": "",
          "type": "string"
        }
      ],
      "stateMutability": "view",
      "type": "function"
    },
    {
      "inputs": [
        {
          "internalType": "uint256",
          "name": "tokenId",
          "type": "uint256"
        }
      ],
      "name": "ownerOf",
      "outputs": [
        {
          "internalType": "address",
          "name": "",
          "type": "address"
        }
      ],
      "stateMutability": "view",
      "type": "function"
    },
    {
      "inputs": [],
      "name": "paused",
      "outputs": [
        {
          "internalType": "bool",
          "name": "",
          "type": "bool"
        }
      ],
      "stateMutability": "view",
      "type": "function"
    },
    {
      "inputs": [
        {
          "internalType": "uint256",
          "name": "requestId",
          "type": "uint256"
        },
        {
          "internalType": "uint256[]",
          "name": "randomWords",
          "type": "uint256[]"
        }
      ],
      "name": "rawFulfillRandomWords",
      "outputs": [],
      "stateMutability": "nonpayable",
      "type": "function"
    },
    {
      "inputs": [
        {
          "internalType": "bytes32",
          "name": "role",
          "type": "bytes32"
        },
        {
          "internalType": "address",
          "name": "account",
          "type": "address"
        }
      ],
      "name": "renounceRole",
      "outputs": [],
      "stateMutability": "nonpayable",
      "type": "function"
    },
    {
      "inputs": [
        {
          "internalType": "uint256",
          "name": "",
          "type": "uint256"
        }
      ],
      "name": "requestIdToSender",
      "outputs": [
        {
          "internalType": "address",
          "name": "",
          "type": "address"
        }
      ],
      "stateMutability": "view",
      "type": "function"
    },
    {
      "inputs": [
        {
          "internalType": "uint256",
          "name": "",
          "type": "uint256"
        }
      ],
      "name": "requestIdToTokenId",
      "outputs": [
        {
          "internalType": "uint256",
          "name": "",
          "type": "uint256"
        }
      ],
      "stateMutability": "view",
      "type": "function"
    },
    {
      "inputs": [
        {
          "internalType": "bytes32",
          "name": "role",
          "type": "bytes32"
        },
        {
          "internalType": "address",
          "name": "account",
          "type": "address"
        }
      ],
      "name": "revokeRole",
      "outputs": [],
      "stateMutability": "nonpayable",
      "type": "function"
    },
    {
      "inputs": [
        {
          "internalType": "address",
          "name": "from",
          "type": "address"
        },
        {
          "internalType": "address",
          "name": "to",
          "type": "address"
        },
        {
          "internalType": "uint256",
          "name": "tokenId",
          "type": "uint256"
        }
      ],
      "name": "safeTransferFrom",
      "outputs": [],
      "stateMutability": "nonpayable",
      "type": "function"
    },
    {
      "inputs": [
        {
          "internalType": "address",
          "name": "from",
          "type": "address"
        },
        {
          "internalType": "address",
          "name": "to",
          "type": "address"
        },
        {
          "internalType": "uint256",
          "name": "tokenId",
          "type": "uint256"
        },
        {
          "internalType": "bytes",
          "name": "data",
          "type": "bytes"
        }
      ],
      "name": "safeTransferFrom",
      "outputs": [],
      "stateMutability": "nonpayable",
      "type": "function"
    },
    {
      "inputs": [
        {
          "internalType": "address",
          "name": "operator",
          "type": "address"
        },
        {
          "internalType": "bool",
          "name": "approved",
          "type": "bool"
        }
      ],
      "name": "setApprovalForAll",
      "outputs": [],
      "stateMutability": "nonpayable",
      "type": "function"
    },
    {
      "inputs": [
        {
          "internalType": "string",
          "name": "newBaseURI",
          "type": "string"
        }
      ],
      "name": "setBaseURI",
      "outputs": [],
      "stateMutability": "nonpayable",
      "type": "function"
    },
    {
      "inputs": [
        {
          "internalType": "bool",
          "name": "_newPauseState",
          "type": "bool"
        }
      ],
      "name": "setPause",
      "outputs": [],
      "stateMutability": "nonpayable",
      "type": "function"
    },
    {
      "inputs": [
        {
          "internalType": "bytes4",
          "name": "interfaceId",
          "type": "bytes4"
        }
      ],
      "name": "supportsInterface",
      "outputs": [
        {
          "internalType": "bool",
          "name": "",
          "type": "bool"
        }
      ],
      "stateMutability": "view",
      "type": "function"
    },
    {
      "inputs": [],
      "name": "symbol",
      "outputs": [
        {
          "internalType": "string",
          "name": "",
          "type": "string"
        }
      ],
      "stateMutability": "view",
      "type": "function"
    },
    {
      "inputs": [],
      "name": "throwABait",
      "outputs": [
        {
          "internalType": "uint256",
          "name": "",
          "type": "uint256"
        }
      ],
      "stateMutability": "nonpayable",
      "type": "function"
    },
    {
      "inputs": [],
      "name": "tokenCounter",
      "outputs": [
        {
          "internalType": "uint256",
          "name": "",
          "type": "uint256"
        }
      ],
      "stateMutability": "view",
      "type": "function"
    },
    {
      "inputs": [
        {
          "internalType": "uint256",
          "name": "tokenID",
          "type": "uint256"
        }
      ],
      "name": "tokenURI",
      "outputs": [
        {
          "internalType": "string",
          "name": "",
          "type": "string"
        }
      ],
      "stateMutability": "view",
      "type": "function"
    },
    {
      "inputs": [
        {
          "internalType": "address",
          "name": "from",
          "type": "address"
        },
        {
          "internalType": "address",
          "name": "to",
          "type": "address"
        },
        {
          "internalType": "uint256",
          "name": "tokenId",
          "type": "uint256"
        }
      ],
      "name": "transferFrom",
      "outputs": [],
      "stateMutability": "nonpayable",
      "type": "function"
    },
    {
      "stateMutability": "payable",
      "type": "receive"
    }
  ],
  "bytecode": "0x60a06040523480156200001157600080fd5b5060405162002b1b38038062002b1b8339810160408190526200003491620001b0565b818686600062000045838262000305565b50600162000054828262000305565b50506007805460ff191690555060016008556001600160a01b03908116608052600e80546001600160a01b031916918416919091179055600f62000099858262000305565b5050600c80546402000493e06001600160401b03199091161790555050600a805461ffff1916600317905550620003d1915050565b634e487b7160e01b600052604160045260246000fd5b600082601f830112620000f657600080fd5b81516001600160401b0380821115620001135762000113620000ce565b604051601f8301601f19908116603f011681019082821181831017156200013e576200013e620000ce565b816040528381526020925086838588010111156200015b57600080fd5b600091505b838210156200017f578582018301518183018401529082019062000160565b600093810190920192909252949350505050565b80516001600160a01b0381168114620001ab57600080fd5b919050565b60008060008060008060c08789031215620001ca57600080fd5b86516001600160401b0380821115620001e257600080fd5b620001f08a838b01620000e4565b975060208901519150808211156200020757600080fd5b620002158a838b01620000e4565b965060408901519150808211156200022c57600080fd5b6200023a8a838b01620000e4565b95506060890151915080821682146200025257600080fd5b509250620002636080880162000193565b915060a087015190509295509295509295565b600181811c908216806200028b57607f821691505b602082108103620002ac57634e487b7160e01b600052602260045260246000fd5b50919050565b601f8211156200030057600081815260208120601f850160051c81016020861015620002db5750805b601f850160051c820191505b81811015620002fc57828155600101620002e7565b5050505b505050565b81516001600160401b03811115620003215762000321620000ce565b620003398162000332845462000276565b84620002b2565b602080601f831160018114620003715760008415620003585750858301515b600019600386901b1c1916600185901b178555620002fc565b600085815260208120601f198616915b82811015620003a25788860151825594840194600190910190840162000381565b5085821015620003c15787850151600019600388901b60f8161c191681555b5050505050600190811b01905550565b608051612727620003f46000396000818161094c015261098e01526127276000f3fe6080604052600436106101cf5760003560e01c80636352211e116100f6578063a22cb4651161008f578063d082e38111610061578063d082e381146105ba578063d547741f146105d0578063d64a0d0c146105f0578063e985e9c51461060757005b8063a22cb4651461053a578063b88d4fde1461055a578063bedb86fb1461057a578063c87b56dd1461059a57005b80638e2de4d3116100c85780638e2de4d3146104ba57806391d14854146104f057806395d89b4114610510578063a217fddf1461052557005b80636352211e146104205780636844b827146104405780636c0360eb1461048557806370a082311461049a57005b8063248a9ca31161016857806342842e0e1161013a57806342842e0e146103a857806342966c68146103c857806355f804b3146103e85780635c975abb1461040857005b8063248a9ca3146103185780632f2ff15d1461034857806336568abe146103685780633b2bcbf11461038857005b8063095ea7b3116101a1578063095ea7b3146102a35780630a564c08146102c35780631fe543e3146102d857806323b872dd146102f857005b806301ffc9a7146101d857806306fdde031461020e5780630750b16314610230578063081812fc1461026b57005b366101d657005b005b3480156101e457600080fd5b506101f96101f3366004611e57565b50600090565b60405190151581526020015b60405180910390f35b34801561021a57600080fd5b50610223610650565b6040516102059190611ec4565b34801561023c57600080fd5b5061025d61024b366004611ed7565b60136020526000908152604090205481565b604051908152602001610205565b34801561027757600080fd5b5061028b610286366004611ed7565b6106e2565b6040516001600160a01b039091168152602001610205565b3480156102af57600080fd5b506101d66102be366004611f0c565b610709565b3480156102cf57600080fd5b5061025d610823565b3480156102e457600080fd5b506101d66102f3366004611f7d565b610941565b34801561030457600080fd5b506101d661031336600461202f565b6109c9565b34801561032457600080fd5b5061025d610333366004611ed7565b60009081526006602052604090206001015490565b34801561035457600080fd5b506101d661036336600461206b565b6109fb565b34801561037457600080fd5b506101d661038336600461206b565b610a20565b34801561039457600080fd5b50600e5461028b906001600160a01b031681565b3480156103b457600080fd5b506101d66103c336600461202f565b610a9a565b3480156103d457600080fd5b506101d66103e3366004611ed7565b610ab5565b3480156103f457600080fd5b506101d66104033660046120ef565b610ae6565b34801561041457600080fd5b5060075460ff166101f9565b34801561042c57600080fd5b5061028b61043b366004611ed7565b610afd565b34801561044c57600080fd5b5061047761045b366004611ed7565b6011602052600090815260409020805460019091015460ff1682565b604051610205929190612170565b34801561049157600080fd5b50610223610b63565b3480156104a657600080fd5b5061025d6104b5366004612184565b610bf1565b3480156104c657600080fd5b5061028b6104d5366004611ed7565b6010602052600090815260409020546001600160a01b031681565b3480156104fc57600080fd5b506101f961050b36600461206b565b610c77565b34801561051c57600080fd5b50610223610ca2565b34801561053157600080fd5b5061025d600081565b34801561054657600080fd5b506101d66105553660046121af565b610cb1565b34801561056657600080fd5b506101d66105753660046121d9565b610cbc565b34801561058657600080fd5b506101d6610595366004612255565b610cf4565b3480156105a657600080fd5b506102236105b5366004611ed7565b610d14565b3480156105c657600080fd5b5061025d600d5481565b3480156105dc57600080fd5b506101d66105eb36600461206b565b610db6565b3480156105fc57600080fd5b5060095461025d9081565b34801561061357600080fd5b506101f9610622366004612270565b6001600160a01b03918216600090815260056020908152604080832093909416825291909152205460ff1690565b60606000805461065f9061229a565b80601f016020809104026020016040519081016040528092919081815260200182805461068b9061229a565b80156106d85780601f106106ad576101008083540402835291602001916106d8565b820191906000526020600020905b8154815290600101906020018083116106bb57829003601f168201915b5050505050905090565b60006106ed82610ddb565b506000908152600460205260409020546001600160a01b031690565b600061071482610afd565b9050806001600160a01b0316836001600160a01b0316036107865760405162461bcd60e51b815260206004820152602160248201527f4552433732313a20617070726f76616c20746f2063757272656e74206f776e656044820152603960f91b60648201526084015b60405180910390fd5b336001600160a01b03821614806107a257506107a28133610622565b6108145760405162461bcd60e51b815260206004820152603d60248201527f4552433732313a20617070726f76652063616c6c6572206973206e6f7420746f60448201527f6b656e206f776e6572206f7220617070726f76656420666f7220616c6c000000606482015260840161077d565b61081e8383610e3a565b505050565b600e54600b54600c54600a546040516305d3b1d360e41b8152600481019390935268010000000000000000820467ffffffffffffffff16602484015261ffff16604483015263ffffffff808216606484015264010000000090910416608482015260009182916001600160a01b0390911690635d3b1d309060a4016020604051808303816000875af11580156108bd573d6000803e3d6000fd5b505050506040513d601f19601f820116820180604052508101906108e191906122d4565b6000818152601060205260409081902080546001600160a01b03191633179055519091507faa7f137f33e9e340f3b7913f08acdde444b9a6d59173ad46edc378bd024b8779906109349083815260200190565b60405180910390a1919050565b336001600160a01b037f000000000000000000000000000000000000000000000000000000000000000016146109bb5760405163073e64fd60e21b81523360048201526001600160a01b037f000000000000000000000000000000000000000000000000000000000000000016602482015260440161077d565b6109c58282610ea8565b5050565b6109d4335b8261125f565b6109f05760405162461bcd60e51b815260040161077d906122ed565b61081e8383836112de565b600082815260066020526040902060010154610a1681611442565b61081e838361144c565b6001600160a01b0381163314610a905760405162461bcd60e51b815260206004820152602f60248201527f416363657373436f6e74726f6c3a2063616e206f6e6c792072656e6f756e636560448201526e103937b632b9903337b91039b2b63360891b606482015260840161077d565b6109c582826114d2565b61081e83838360405180602001604052806000815250610cbc565b610abe336109ce565b610ada5760405162461bcd60e51b815260040161077d906122ed565b610ae381611539565b50565b6000610af181611442565b600f61081e8382612388565b6000818152600260205260408120546001600160a01b031680610b5d5760405162461bcd60e51b8152602060048201526018602482015277115490cdcc8c4e881a5b9d985b1a59081d1bdad95b88125160421b604482015260640161077d565b92915050565b600f8054610b709061229a565b80601f0160208091040260200160405190810160405280929190818152602001828054610b9c9061229a565b8015610be95780601f10610bbe57610100808354040283529160200191610be9565b820191906000526020600020905b815481529060010190602001808311610bcc57829003601f168201915b505050505081565b60006001600160a01b038216610c5b5760405162461bcd60e51b815260206004820152602960248201527f4552433732313a2061646472657373207a65726f206973206e6f7420612076616044820152683634b21037bbb732b960b91b606482015260840161077d565b506001600160a01b031660009081526003602052604090205490565b60009182526006602090815260408084206001600160a01b0393909316845291905290205460ff1690565b60606001805461065f9061229a565b6109c53383836115ce565b610cc6338361125f565b610ce25760405162461bcd60e51b815260040161077d906122ed565b610cee8484848461169c565b50505050565b6000610cff81611442565b81610d0c576109c56116cf565b6109c5611721565b6000818152601260205260409020805460609190610d319061229a565b80601f0160208091040260200160405190810160405280929190818152602001828054610d5d9061229a565b8015610daa5780601f10610d7f57610100808354040283529160200191610daa565b820191906000526020600020905b815481529060010190602001808311610d8d57829003601f168201915b50505050509050919050565b600082815260066020526040902060010154610dd181611442565b61081e83836114d2565b6000818152600260205260409020546001600160a01b0316610ae35760405162461bcd60e51b8152602060048201526018602482015277115490cdcc8c4e881a5b9d985b1a59081d1bdad95b88125160421b604482015260640161077d565b600081815260046020526040902080546001600160a01b0319166001600160a01b0384169081179091558190610e6f82610afd565b6001600160a01b03167f8c5be1e5ebec7d5bd14f71427d1e84f3dd0314c0f7b2291e5b200ac8c7c3b92560405160405180910390a45050565b610eb6600980546001019055565b6000610ec160095490565b6000848152601060209081526040808320548484526011909252822085519394506001600160a01b03909116929091600991869190610f0257610f02612448565b6020026020010151610f14919061245e565b600003610f58576001808201805460029260ff1990911690835b021790555083600181518110610f4657610f46612448565b60209081029190910101518155611195565b600884600081518110610f6d57610f6d612448565b6020026020010151610f7f919061245e565b600003610f9d576001808201805460069260ff199091169083610f2e565b600784600081518110610fb257610fb2612448565b6020026020010151610fc4919061245e565b600003610fe2576001808201805460009260ff199091169083610f2e565b600684600081518110610ff757610ff7612448565b6020026020010151611009919061245e565b600003611022576001818101805460ff19168280610f2e565b60058460008151811061103757611037612448565b6020026020010151611049919061245e565b600003611067576001808201805460049260ff199091169083610f2e565b60048460008151811061107c5761107c612448565b602002602001015161108e919061245e565b6000036110ac576001808201805460059260ff199091169083610f2e565b6003846000815181106110c1576110c1612448565b60200260200101516110d3919061245e565b6000036110f1576001808201805460039260ff199091169083610f2e565b60028460008151811061110657611106612448565b6020026020010151611118919061245e565b600003611136576001808201805460079260ff199091169083610f2e565b60018460008151811061114b5761114b612448565b602002602001015161115d919061245e565b600003611195576001818101805460ff191660081790558451859190811061118757611187612448565b602090810291909101015181555b6001810154600090600f906111bd9060ff1660088111156111b8576111b8612138565b61175e565b6040516020016111ce929190612480565b60405160208183030381529060405290506111e983856117f1565b80601260006111f760095490565b815260200190815260200160002090816112119190612388565b5060018201546040517f289c71d0d6d2c7afa2091c18278a04a3b8b3244a68987c28188fd2b3ff65e1ba9161124f9160ff9091169089908790612507565b60405180910390a1505050505050565b60008061126b83610afd565b9050806001600160a01b0316846001600160a01b031614806112b257506001600160a01b0380821660009081526005602090815260408083209388168352929052205460ff165b806112d65750836001600160a01b03166112cb846106e2565b6001600160a01b0316145b949350505050565b826001600160a01b03166112f182610afd565b6001600160a01b0316146113175760405162461bcd60e51b815260040161077d90612534565b6001600160a01b0382166113795760405162461bcd60e51b8152602060048201526024808201527f4552433732313a207472616e7366657220746f20746865207a65726f206164646044820152637265737360e01b606482015260840161077d565b826001600160a01b031661138c82610afd565b6001600160a01b0316146113b25760405162461bcd60e51b815260040161077d90612534565b600081815260046020908152604080832080546001600160a01b03199081169091556001600160a01b0387811680865260038552838620805460001901905590871680865283862080546001019055868652600290945282852080549092168417909155905184937fddf252ad1be2c89b69c2b068fc378daa952ba7f163c4a11628f55a4df523b3ef91a4505050565b610ae3813361180b565b6114568282610c77565b6109c55760008281526006602090815260408083206001600160a01b03851684529091529020805460ff1916600117905561148e3390565b6001600160a01b0316816001600160a01b0316837f2f8788117e7eff1d82e926ec794901d17c78024a50270940304540a733656f0d60405160405180910390a45050565b6114dc8282610c77565b156109c55760008281526006602090815260408083206001600160a01b0385168085529252808320805460ff1916905551339285917ff6391f5c32d9c69d2a47ea670b442974b53935d1edc7fd64eb21e047a839171b9190a45050565b600061154482610afd565b905061154f82610afd565b600083815260046020908152604080832080546001600160a01b03199081169091556001600160a01b0385168085526003845282852080546000190190558785526002909352818420805490911690555192935084927fddf252ad1be2c89b69c2b068fc378daa952ba7f163c4a11628f55a4df523b3ef908390a45050565b816001600160a01b0316836001600160a01b03160361162f5760405162461bcd60e51b815260206004820152601960248201527f4552433732313a20617070726f766520746f2063616c6c657200000000000000604482015260640161077d565b6001600160a01b03838116600081815260056020908152604080832094871680845294825291829020805460ff191686151590811790915591519182527f17307eab39ab6107e8899845ad3d59bd9653f200f220920489ca2b5937696c31910160405180910390a3505050565b6116a78484846112de565b6116b384848484611864565b610cee5760405162461bcd60e51b815260040161077d90612579565b6116d7611965565b6007805460ff191690557f5db9ee0a495bf2e6ff9c91a7834c1ba4fdd244a5e8aa4e537bd38aeae4b073aa335b6040516001600160a01b03909116815260200160405180910390a1565b6117296119b0565b6007805460ff191660011790557f62e78cea01bee320cd4e420270b5ea74000d11b0c9f74754ebdbfc544b05a2586117043390565b6060600061176b836119f6565b600101905060008167ffffffffffffffff81111561178b5761178b611f36565b6040519080825280601f01601f1916602001820160405280156117b5576020820181803683370190505b5090508181016020015b600019016f181899199a1a9b1b9c1cb0b131b232b360811b600a86061a8153600a85049450846117bf57509392505050565b6109c5828260405180602001604052806000815250611ace565b6118158282610c77565b6109c55761182281611b01565b61182d836020611b13565b60405160200161183e9291906125cb565b60408051601f198184030181529082905262461bcd60e51b825261077d91600401611ec4565b60006001600160a01b0384163b1561195a57604051630a85bd0160e11b81526001600160a01b0385169063150b7a02906118a8903390899088908890600401612640565b6020604051808303816000875af19250505080156118e3575060408051601f3d908101601f191682019092526118e09181019061267d565b60015b611940573d808015611911576040519150601f19603f3d011682016040523d82523d6000602084013e611916565b606091505b5080516000036119385760405162461bcd60e51b815260040161077d90612579565b805181602001fd5b6001600160e01b031916630a85bd0160e11b1490506112d6565b506001949350505050565b60075460ff166119ae5760405162461bcd60e51b815260206004820152601460248201527314185d5cd8589b194e881b9bdd081c185d5cd95960621b604482015260640161077d565b565b60075460ff16156119ae5760405162461bcd60e51b815260206004820152601060248201526f14185d5cd8589b194e881c185d5cd95960821b604482015260640161077d565b60008072184f03e93ff9f4daa797ed6e38ed64bf6a1f0160401b8310611a355772184f03e93ff9f4daa797ed6e38ed64bf6a1f0160401b830492506040015b6d04ee2d6d415b85acef81000000008310611a61576d04ee2d6d415b85acef8100000000830492506020015b662386f26fc100008310611a7f57662386f26fc10000830492506010015b6305f5e1008310611a97576305f5e100830492506008015b6127108310611aab57612710830492506004015b60648310611abd576064830492506002015b600a8310610b5d5760010192915050565b611ad88383611cb6565b611ae56000848484611864565b61081e5760405162461bcd60e51b815260040161077d90612579565b6060610b5d6001600160a01b03831660145b60606000611b228360026126b0565b611b2d9060026126c7565b67ffffffffffffffff811115611b4557611b45611f36565b6040519080825280601f01601f191660200182016040528015611b6f576020820181803683370190505b509050600360fc1b81600081518110611b8a57611b8a612448565b60200101906001600160f81b031916908160001a905350600f60fb1b81600181518110611bb957611bb9612448565b60200101906001600160f81b031916908160001a9053506000611bdd8460026126b0565b611be89060016126c7565b90505b6001811115611c60576f181899199a1a9b1b9c1cb0b131b232b360811b85600f1660108110611c1c57611c1c612448565b1a60f81b828281518110611c3257611c32612448565b60200101906001600160f81b031916908160001a90535060049490941c93611c59816126da565b9050611beb565b508315611caf5760405162461bcd60e51b815260206004820181905260248201527f537472696e67733a20686578206c656e67746820696e73756666696369656e74604482015260640161077d565b9392505050565b6001600160a01b038216611d0c5760405162461bcd60e51b815260206004820181905260248201527f4552433732313a206d696e7420746f20746865207a65726f2061646472657373604482015260640161077d565b6000818152600260205260409020546001600160a01b031615611d715760405162461bcd60e51b815260206004820152601c60248201527f4552433732313a20746f6b656e20616c7265616479206d696e74656400000000604482015260640161077d565b6000818152600260205260409020546001600160a01b031615611dd65760405162461bcd60e51b815260206004820152601c60248201527f4552433732313a20746f6b656e20616c7265616479206d696e74656400000000604482015260640161077d565b6001600160a01b038216600081815260036020908152604080832080546001019055848352600290915280822080546001600160a01b0319168417905551839291907fddf252ad1be2c89b69c2b068fc378daa952ba7f163c4a11628f55a4df523b3ef908290a45050565b6001600160e01b031981168114610ae357600080fd5b600060208284031215611e6957600080fd5b8135611caf81611e41565b60005b83811015611e8f578181015183820152602001611e77565b50506000910152565b60008151808452611eb0816020860160208601611e74565b601f01601f19169290920160200192915050565b602081526000611caf6020830184611e98565b600060208284031215611ee957600080fd5b5035919050565b80356001600160a01b0381168114611f0757600080fd5b919050565b60008060408385031215611f1f57600080fd5b611f2883611ef0565b946020939093013593505050565b634e487b7160e01b600052604160045260246000fd5b604051601f8201601f1916810167ffffffffffffffff81118282101715611f7557611f75611f36565b604052919050565b60008060408385031215611f9057600080fd5b8235915060208084013567ffffffffffffffff80821115611fb057600080fd5b818601915086601f830112611fc457600080fd5b813581811115611fd657611fd6611f36565b8060051b9150611fe7848301611f4c565b818152918301840191848101908984111561200157600080fd5b938501935b8385101561201f57843582529385019390850190612006565b8096505050505050509250929050565b60008060006060848603121561204457600080fd5b61204d84611ef0565b925061205b60208501611ef0565b9150604084013590509250925092565b6000806040838503121561207e57600080fd5b8235915061208e60208401611ef0565b90509250929050565b600067ffffffffffffffff8311156120b1576120b1611f36565b6120c4601f8401601f1916602001611f4c565b90508281528383830111156120d857600080fd5b828260208301376000602084830101529392505050565b60006020828403121561210157600080fd5b813567ffffffffffffffff81111561211857600080fd5b8201601f8101841361212957600080fd5b6112d684823560208401612097565b634e487b7160e01b600052602160045260246000fd5b6009811061216c57634e487b7160e01b600052602160045260246000fd5b9052565b82815260408101611caf602083018461214e565b60006020828403121561219657600080fd5b611caf82611ef0565b80358015158114611f0757600080fd5b600080604083850312156121c257600080fd5b6121cb83611ef0565b915061208e6020840161219f565b600080600080608085870312156121ef57600080fd5b6121f885611ef0565b935061220660208601611ef0565b925060408501359150606085013567ffffffffffffffff81111561222957600080fd5b8501601f8101871361223a57600080fd5b61224987823560208401612097565b91505092959194509250565b60006020828403121561226757600080fd5b611caf8261219f565b6000806040838503121561228357600080fd5b61228c83611ef0565b915061208e60208401611ef0565b600181811c908216806122ae57607f821691505b6020821081036122ce57634e487b7160e01b600052602260045260246000fd5b50919050565b6000602082840312156122e657600080fd5b5051919050565b6020808252602d908201527f4552433732313a2063616c6c6572206973206e6f7420746f6b656e206f776e6560408201526c1c881bdc88185c1c1c9bdd9959609a1b606082015260800190565b601f82111561081e57600081815260208120601f850160051c810160208610156123615750805b601f850160051c820191505b818110156123805782815560010161236d565b505050505050565b815167ffffffffffffffff8111156123a2576123a2611f36565b6123b6816123b0845461229a565b8461233a565b602080601f8311600181146123eb57600084156123d35750858301515b600019600386901b1c1916600185901b178555612380565b600085815260208120601f198616915b8281101561241a578886015182559484019460019091019084016123fb565b50858210156124385787850151600019600388901b60f8161c191681555b5050505050600190811b01905550565b634e487b7160e01b600052603260045260246000fd5b60008261247b57634e487b7160e01b600052601260045260246000fd5b500690565b600080845461248e8161229a565b600182811680156124a657600181146124bb576124ea565b60ff19841687528215158302870194506124ea565b8860005260208060002060005b858110156124e15781548a8201529084019082016124c8565b50505082870194505b5050505083516124fe818360208801611e74565b01949350505050565b60608101612515828661214e565b60208201939093526001600160a01b0391909116604090910152919050565b60208082526025908201527f4552433732313a207472616e736665722066726f6d20696e636f72726563742060408201526437bbb732b960d91b606082015260800190565b60208082526032908201527f4552433732313a207472616e7366657220746f206e6f6e20455243373231526560408201527131b2b4bb32b91034b6b83632b6b2b73a32b960711b606082015260800190565b7f416363657373436f6e74726f6c3a206163636f756e7420000000000000000000815260008351612603816017850160208801611e74565b7001034b99036b4b9b9b4b733903937b6329607d1b6017918401918201528351612634816028840160208801611e74565b01602801949350505050565b6001600160a01b038581168252841660208201526040810183905260806060820181905260009061267390830184611e98565b9695505050505050565b60006020828403121561268f57600080fd5b8151611caf81611e41565b634e487b7160e01b600052601160045260246000fd5b8082028115828204841417610b5d57610b5d61269a565b80820180821115610b5d57610b5d61269a565b6000816126e9576126e961269a565b50600019019056fea2646970667358221220ef841e350b064e6d487b0f32ecf7cdf42b0705ba46e33b070dd6d9ac99e88fb664736f6c63430008110033",
  "linkReferences": {},
  "deployedLinkReferences": {}
}